{
	"staking-contract/contracts/Staking.sol": {
		"Staking": {
			"abi": [
				{
					"inputs": [
						{
							"internalType": "uint256",
							"name": "_stakingPeriod",
							"type": "uint256"
						},
						{
							"internalType": "uint256",
							"name": "_totalRewards",
							"type": "uint256"
						}
					],
					"stateMutability": "nonpayable",
					"type": "constructor"
				},
				{
					"inputs": [
						{
							"internalType": "address",
							"name": "_user",
							"type": "address"
						}
					],
					"name": "calculateRewards",
					"outputs": [
						{
							"internalType": "uint256",
							"name": "",
							"type": "uint256"
						}
					],
					"stateMutability": "view",
					"type": "function"
				},
				{
					"inputs": [],
					"name": "distributeRewards",
					"outputs": [],
					"stateMutability": "nonpayable",
					"type": "function"
				},
				{
					"inputs": [],
					"name": "getStakers",
					"outputs": [
						{
							"internalType": "address[]",
							"name": "",
							"type": "address[]"
						}
					],
					"stateMutability": "view",
					"type": "function"
				},
				{
					"inputs": [],
					"name": "owner",
					"outputs": [
						{
							"internalType": "address",
							"name": "",
							"type": "address"
						}
					],
					"stateMutability": "view",
					"type": "function"
				},
				{
					"inputs": [
						{
							"internalType": "uint256",
							"name": "_amount",
							"type": "uint256"
						}
					],
					"name": "stake",
					"outputs": [],
					"stateMutability": "nonpayable",
					"type": "function"
				},
				{
					"inputs": [
						{
							"internalType": "address",
							"name": "",
							"type": "address"
						}
					],
					"name": "stakedBalances",
					"outputs": [
						{
							"internalType": "uint256",
							"name": "",
							"type": "uint256"
						}
					],
					"stateMutability": "view",
					"type": "function"
				},
				{
					"inputs": [],
					"name": "stakingPeriod",
					"outputs": [
						{
							"internalType": "uint256",
							"name": "",
							"type": "uint256"
						}
					],
					"stateMutability": "view",
					"type": "function"
				},
				{
					"inputs": [
						{
							"internalType": "address",
							"name": "",
							"type": "address"
						}
					],
					"name": "stakingStartTimes",
					"outputs": [
						{
							"internalType": "uint256",
							"name": "",
							"type": "uint256"
						}
					],
					"stateMutability": "view",
					"type": "function"
				},
				{
					"inputs": [],
					"name": "totalRewards",
					"outputs": [
						{
							"internalType": "uint256",
							"name": "",
							"type": "uint256"
						}
					],
					"stateMutability": "view",
					"type": "function"
				},
				{
					"inputs": [
						{
							"internalType": "address",
							"name": "",
							"type": "address"
						}
					],
					"name": "userBalances",
					"outputs": [
						{
							"internalType": "uint256",
							"name": "",
							"type": "uint256"
						}
					],
					"stateMutability": "view",
					"type": "function"
				},
				{
					"inputs": [],
					"name": "withdraw",
					"outputs": [],
					"stateMutability": "nonpayable",
					"type": "function"
				}
			],
			"devdoc": {
				"kind": "dev",
				"methods": {},
				"version": 1
			},
			"evm": {
				"assembly": "    /* \"staking-contract/contracts/Staking.sol\":69:3268  contract Staking {... */\n  mstore(0x40, 0x80)\n    /* \"staking-contract/contracts/Staking.sol\":345:515  constructor(uint _stakingPeriod, uint _totalRewards) {... */\n  callvalue\n  dup1\n  iszero\n  tag_1\n  jumpi\n  0x00\n  dup1\n  revert\ntag_1:\n  pop\n  mload(0x40)\n  sub(codesize, bytecodeSize)\n  dup1\n  bytecodeSize\n  dup4\n  codecopy\n  dup2\n  dup2\n  add\n  0x40\n  mstore\n  dup2\n  add\n  swap1\n  tag_2\n  swap2\n  swap1\n  tag_3\n  jump\t// in\ntag_2:\n    /* \"staking-contract/contracts/Staking.sol\":417:427  msg.sender */\n  caller\n    /* \"staking-contract/contracts/Staking.sol\":409:414  owner */\n  0x00\n  dup1\n    /* \"staking-contract/contracts/Staking.sol\":409:427  owner = msg.sender */\n  0x0100\n  exp\n  dup2\n  sload\n  dup2\n  0xffffffffffffffffffffffffffffffffffffffff\n  mul\n  not\n  and\n  swap1\n  dup4\n  0xffffffffffffffffffffffffffffffffffffffff\n  and\n  mul\n  or\n  swap1\n  sstore\n  pop\n    /* \"staking-contract/contracts/Staking.sol\":454:468  _stakingPeriod */\n  dup2\n    /* \"staking-contract/contracts/Staking.sol\":438:451  stakingPeriod */\n  0x01\n    /* \"staking-contract/contracts/Staking.sol\":438:468  stakingPeriod = _stakingPeriod */\n  dup2\n  swap1\n  sstore\n  pop\n    /* \"staking-contract/contracts/Staking.sol\":494:507  _totalRewards */\n  dup1\n    /* \"staking-contract/contracts/Staking.sol\":479:491  totalRewards */\n  0x02\n    /* \"staking-contract/contracts/Staking.sol\":479:507  totalRewards = _totalRewards */\n  dup2\n  swap1\n  sstore\n  pop\n    /* \"staking-contract/contracts/Staking.sol\":345:515  constructor(uint _stakingPeriod, uint _totalRewards) {... */\n  pop\n  pop\n    /* \"staking-contract/contracts/Staking.sol\":69:3268  contract Staking {... */\n  jump(tag_6)\n    /* \"#utility.yul\":88:205   */\ntag_8:\n    /* \"#utility.yul\":197:198   */\n  0x00\n    /* \"#utility.yul\":194:195   */\n  dup1\n    /* \"#utility.yul\":187:199   */\n  revert\n    /* \"#utility.yul\":334:411   */\ntag_10:\n    /* \"#utility.yul\":371:378   */\n  0x00\n    /* \"#utility.yul\":400:405   */\n  dup2\n    /* \"#utility.yul\":389:405   */\n  swap1\n  pop\n    /* \"#utility.yul\":334:411   */\n  swap2\n  swap1\n  pop\n  jump\t// out\n    /* \"#utility.yul\":417:539   */\ntag_11:\n    /* \"#utility.yul\":490:514   */\n  tag_19\n    /* \"#utility.yul\":508:513   */\n  dup2\n    /* \"#utility.yul\":490:514   */\n  tag_10\n  jump\t// in\ntag_19:\n    /* \"#utility.yul\":483:488   */\n  dup2\n    /* \"#utility.yul\":480:515   */\n  eq\n    /* \"#utility.yul\":470:533   */\n  tag_20\n  jumpi\n    /* \"#utility.yul\":529:530   */\n  0x00\n    /* \"#utility.yul\":526:527   */\n  dup1\n    /* \"#utility.yul\":519:531   */\n  revert\n    /* \"#utility.yul\":470:533   */\ntag_20:\n    /* \"#utility.yul\":417:539   */\n  pop\n  jump\t// out\n    /* \"#utility.yul\":545:688   */\ntag_12:\n    /* \"#utility.yul\":602:607   */\n  0x00\n    /* \"#utility.yul\":633:639   */\n  dup2\n    /* \"#utility.yul\":627:640   */\n  mload\n    /* \"#utility.yul\":618:640   */\n  swap1\n  pop\n    /* \"#utility.yul\":649:682   */\n  tag_22\n    /* \"#utility.yul\":676:681   */\n  dup2\n    /* \"#utility.yul\":649:682   */\n  tag_11\n  jump\t// in\ntag_22:\n    /* \"#utility.yul\":545:688   */\n  swap3\n  swap2\n  pop\n  pop\n  jump\t// out\n    /* \"#utility.yul\":694:1201   */\ntag_3:\n    /* \"#utility.yul\":773:779   */\n  0x00\n    /* \"#utility.yul\":781:787   */\n  dup1\n    /* \"#utility.yul\":830:832   */\n  0x40\n    /* \"#utility.yul\":818:827   */\n  dup4\n    /* \"#utility.yul\":809:816   */\n  dup6\n    /* \"#utility.yul\":805:828   */\n  sub\n    /* \"#utility.yul\":801:833   */\n  slt\n    /* \"#utility.yul\":798:917   */\n  iszero\n  tag_24\n  jumpi\n    /* \"#utility.yul\":836:915   */\n  tag_25\n  tag_8\n  jump\t// in\ntag_25:\n    /* \"#utility.yul\":798:917   */\ntag_24:\n    /* \"#utility.yul\":956:957   */\n  0x00\n    /* \"#utility.yul\":981:1045   */\n  tag_26\n    /* \"#utility.yul\":1037:1044   */\n  dup6\n    /* \"#utility.yul\":1028:1034   */\n  dup3\n    /* \"#utility.yul\":1017:1026   */\n  dup7\n    /* \"#utility.yul\":1013:1035   */\n  add\n    /* \"#utility.yul\":981:1045   */\n  tag_12\n  jump\t// in\ntag_26:\n    /* \"#utility.yul\":971:1045   */\n  swap3\n  pop\n    /* \"#utility.yul\":927:1055   */\n  pop\n    /* \"#utility.yul\":1094:1096   */\n  0x20\n    /* \"#utility.yul\":1120:1184   */\n  tag_27\n    /* \"#utility.yul\":1176:1183   */\n  dup6\n    /* \"#utility.yul\":1167:1173   */\n  dup3\n    /* \"#utility.yul\":1156:1165   */\n  dup7\n    /* \"#utility.yul\":1152:1174   */\n  add\n    /* \"#utility.yul\":1120:1184   */\n  tag_12\n  jump\t// in\ntag_27:\n    /* \"#utility.yul\":1110:1184   */\n  swap2\n  pop\n    /* \"#utility.yul\":1065:1194   */\n  pop\n    /* \"#utility.yul\":694:1201   */\n  swap3\n  pop\n  swap3\n  swap1\n  pop\n  jump\t// out\n    /* \"staking-contract/contracts/Staking.sol\":69:3268  contract Staking {... */\ntag_6:\n  dataSize(sub_0)\n  dup1\n  dataOffset(sub_0)\n  0x00\n  codecopy\n  0x00\n  return\nstop\n\nsub_0: assembly {\n        /* \"staking-contract/contracts/Staking.sol\":69:3268  contract Staking {... */\n      mstore(0x40, 0x80)\n      callvalue\n      dup1\n      iszero\n      tag_1\n      jumpi\n      0x00\n      dup1\n      revert\n    tag_1:\n      pop\n      jumpi(tag_2, lt(calldatasize, 0x04))\n      shr(0xe0, calldataload(0x00))\n      dup1\n      0x64ab8675\n      gt\n      tag_14\n      jumpi\n      dup1\n      0x64ab8675\n      eq\n      tag_8\n      jumpi\n      dup1\n      0x6f4a2cd0\n      eq\n      tag_9\n      jumpi\n      dup1\n      0x8da5cb5b\n      eq\n      tag_10\n      jumpi\n      dup1\n      0x9dedb97d\n      eq\n      tag_11\n      jumpi\n      dup1\n      0xa694fc3a\n      eq\n      tag_12\n      jumpi\n      dup1\n      0xc03d5b47\n      eq\n      tag_13\n      jumpi\n      jump(tag_2)\n    tag_14:\n      dup1\n      0x0e15561a\n      eq\n      tag_3\n      jumpi\n      dup1\n      0x1460fa87\n      eq\n      tag_4\n      jumpi\n      dup1\n      0x26224c64\n      eq\n      tag_5\n      jumpi\n      dup1\n      0x3ccfd60b\n      eq\n      tag_6\n      jumpi\n      dup1\n      0x43352d61\n      eq\n      tag_7\n      jumpi\n    tag_2:\n      0x00\n      dup1\n      revert\n        /* \"staking-contract/contracts/Staking.sol\":152:176  uint public totalRewards */\n    tag_3:\n      tag_15\n      tag_16\n      jump\t// in\n    tag_15:\n      mload(0x40)\n      tag_17\n      swap2\n      swap1\n      tag_18\n      jump\t// in\n    tag_17:\n      mload(0x40)\n      dup1\n      swap2\n      sub\n      swap1\n      return\n        /* \"staking-contract/contracts/Staking.sol\":234:280  mapping(address => uint) public stakedBalances */\n    tag_4:\n      tag_19\n      0x04\n      dup1\n      calldatasize\n      sub\n      dup2\n      add\n      swap1\n      tag_20\n      swap2\n      swap1\n      tag_21\n      jump\t// in\n    tag_20:\n      tag_22\n      jump\t// in\n    tag_19:\n      mload(0x40)\n      tag_23\n      swap2\n      swap1\n      tag_18\n      jump\t// in\n    tag_23:\n      mload(0x40)\n      dup1\n      swap2\n      sub\n      swap1\n      return\n        /* \"staking-contract/contracts/Staking.sol\":183:227  mapping(address => uint) public userBalances */\n    tag_5:\n      tag_24\n      0x04\n      dup1\n      calldatasize\n      sub\n      dup2\n      add\n      swap1\n      tag_25\n      swap2\n      swap1\n      tag_21\n      jump\t// in\n    tag_25:\n      tag_26\n      jump\t// in\n    tag_24:\n      mload(0x40)\n      tag_27\n      swap2\n      swap1\n      tag_18\n      jump\t// in\n    tag_27:\n      mload(0x40)\n      dup1\n      swap2\n      sub\n      swap1\n      return\n        /* \"staking-contract/contracts/Staking.sol\":2401:3265  function withdraw() public {... */\n    tag_6:\n      tag_28\n      tag_29\n      jump\t// in\n    tag_28:\n      stop\n        /* \"staking-contract/contracts/Staking.sol\":2071:2393  function getStakers() public view returns (address[] memory) {... */\n    tag_7:\n      tag_30\n      tag_31\n      jump\t// in\n    tag_30:\n      mload(0x40)\n      tag_32\n      swap2\n      swap1\n      tag_33\n      jump\t// in\n    tag_32:\n      mload(0x40)\n      dup1\n      swap2\n      sub\n      swap1\n      return\n        /* \"staking-contract/contracts/Staking.sol\":1019:1366  function calculateRewards(address _user) public view returns (uint) {... */\n    tag_8:\n      tag_34\n      0x04\n      dup1\n      calldatasize\n      sub\n      dup2\n      add\n      swap1\n      tag_35\n      swap2\n      swap1\n      tag_21\n      jump\t// in\n    tag_35:\n      tag_36\n      jump\t// in\n    tag_34:\n      mload(0x40)\n      tag_37\n      swap2\n      swap1\n      tag_18\n      jump\t// in\n    tag_37:\n      mload(0x40)\n      dup1\n      swap2\n      sub\n      swap1\n      return\n        /* \"staking-contract/contracts/Staking.sol\":1374:2063  function distributeRewards() public {... */\n    tag_9:\n      tag_38\n      tag_39\n      jump\t// in\n    tag_38:\n      stop\n        /* \"staking-contract/contracts/Staking.sol\":93:113  address public owner */\n    tag_10:\n      tag_40\n      tag_41\n      jump\t// in\n    tag_40:\n      mload(0x40)\n      tag_42\n      swap2\n      swap1\n      tag_43\n      jump\t// in\n    tag_42:\n      mload(0x40)\n      dup1\n      swap2\n      sub\n      swap1\n      return\n        /* \"staking-contract/contracts/Staking.sol\":287:336  mapping(address => uint) public stakingStartTimes */\n    tag_11:\n      tag_44\n      0x04\n      dup1\n      calldatasize\n      sub\n      dup2\n      add\n      swap1\n      tag_45\n      swap2\n      swap1\n      tag_21\n      jump\t// in\n    tag_45:\n      tag_46\n      jump\t// in\n    tag_44:\n      mload(0x40)\n      tag_47\n      swap2\n      swap1\n      tag_18\n      jump\t// in\n    tag_47:\n      mload(0x40)\n      dup1\n      swap2\n      sub\n      swap1\n      return\n        /* \"staking-contract/contracts/Staking.sol\":523:1011  function stake(uint _amount) public {... */\n    tag_12:\n      tag_48\n      0x04\n      dup1\n      calldatasize\n      sub\n      dup2\n      add\n      swap1\n      tag_49\n      swap2\n      swap1\n      tag_50\n      jump\t// in\n    tag_49:\n      tag_51\n      jump\t// in\n    tag_48:\n      stop\n        /* \"staking-contract/contracts/Staking.sol\":120:145  uint public stakingPeriod */\n    tag_13:\n      tag_52\n      tag_53\n      jump\t// in\n    tag_52:\n      mload(0x40)\n      tag_54\n      swap2\n      swap1\n      tag_18\n      jump\t// in\n    tag_54:\n      mload(0x40)\n      dup1\n      swap2\n      sub\n      swap1\n      return\n        /* \"staking-contract/contracts/Staking.sol\":152:176  uint public totalRewards */\n    tag_16:\n      sload(0x02)\n      dup2\n      jump\t// out\n        /* \"staking-contract/contracts/Staking.sol\":234:280  mapping(address => uint) public stakedBalances */\n    tag_22:\n      mstore(0x20, 0x04)\n      dup1\n      0x00\n      mstore\n      keccak256(0x00, 0x40)\n      0x00\n      swap2\n      pop\n      swap1\n      pop\n      sload\n      dup2\n      jump\t// out\n        /* \"staking-contract/contracts/Staking.sol\":183:227  mapping(address => uint) public userBalances */\n    tag_26:\n      mstore(0x20, 0x03)\n      dup1\n      0x00\n      mstore\n      keccak256(0x00, 0x40)\n      0x00\n      swap2\n      pop\n      swap1\n      pop\n      sload\n      dup2\n      jump\t// out\n        /* \"staking-contract/contracts/Staking.sol\":2401:3265  function withdraw() public {... */\n    tag_29:\n        /* \"staking-contract/contracts/Staking.sol\":2519:2536  uint totalBalance */\n      0x00\n        /* \"staking-contract/contracts/Staking.sol\":2566:2594  calculateRewards(msg.sender) */\n      tag_56\n        /* \"staking-contract/contracts/Staking.sol\":2583:2593  msg.sender */\n      caller\n        /* \"staking-contract/contracts/Staking.sol\":2566:2582  calculateRewards */\n      tag_36\n        /* \"staking-contract/contracts/Staking.sol\":2566:2594  calculateRewards(msg.sender) */\n      jump\t// in\n    tag_56:\n        /* \"staking-contract/contracts/Staking.sol\":2539:2551  userBalances */\n      0x03\n        /* \"staking-contract/contracts/Staking.sol\":2539:2563  userBalances[msg.sender] */\n      0x00\n        /* \"staking-contract/contracts/Staking.sol\":2552:2562  msg.sender */\n      caller\n        /* \"staking-contract/contracts/Staking.sol\":2539:2563  userBalances[msg.sender] */\n      0xffffffffffffffffffffffffffffffffffffffff\n      and\n      0xffffffffffffffffffffffffffffffffffffffff\n      and\n      dup2\n      mstore\n      0x20\n      add\n      swap1\n      dup2\n      mstore\n      0x20\n      add\n      0x00\n      keccak256\n      sload\n        /* \"staking-contract/contracts/Staking.sol\":2539:2594  userBalances[msg.sender] + calculateRewards(msg.sender) */\n      tag_57\n      swap2\n      swap1\n      tag_58\n      jump\t// in\n    tag_57:\n        /* \"staking-contract/contracts/Staking.sol\":2519:2594  uint totalBalance = userBalances[msg.sender] + calculateRewards(msg.sender) */\n      swap1\n      pop\n        /* \"staking-contract/contracts/Staking.sol\":2691:2692  0 */\n      0x00\n        /* \"staking-contract/contracts/Staking.sol\":2676:2688  totalBalance */\n      dup2\n        /* \"staking-contract/contracts/Staking.sol\":2676:2692  totalBalance > 0 */\n      gt\n        /* \"staking-contract/contracts/Staking.sol\":2668:2729  require(totalBalance > 0, \"Insufficient balance to withdraw\") */\n      tag_59\n      jumpi\n      mload(0x40)\n      0x08c379a000000000000000000000000000000000000000000000000000000000\n      dup2\n      mstore\n      0x04\n      add\n      tag_60\n      swap1\n      tag_61\n      jump\t// in\n    tag_60:\n      mload(0x40)\n      dup1\n      swap2\n      sub\n      swap1\n      revert\n    tag_59:\n        /* \"staking-contract/contracts/Staking.sol\":2807:2832  address payable recipient */\n      0x00\n        /* \"staking-contract/contracts/Staking.sol\":2843:2853  msg.sender */\n      caller\n        /* \"staking-contract/contracts/Staking.sol\":2807:2854  address payable recipient = payable(msg.sender) */\n      swap1\n      pop\n        /* \"staking-contract/contracts/Staking.sol\":2920:2929  recipient */\n      dup1\n        /* \"staking-contract/contracts/Staking.sol\":2920:2938  recipient.transfer */\n      0xffffffffffffffffffffffffffffffffffffffff\n      and\n        /* \"staking-contract/contracts/Staking.sol\":2920:2952  recipient.transfer(totalBalance) */\n      0x08fc\n        /* \"staking-contract/contracts/Staking.sol\":2939:2951  totalBalance */\n      dup4\n        /* \"staking-contract/contracts/Staking.sol\":2920:2952  recipient.transfer(totalBalance) */\n      swap1\n      dup2\n      iszero\n      mul\n      swap1\n      mload(0x40)\n      0x00\n      mload(0x40)\n      dup1\n      dup4\n      sub\n      dup2\n      dup6\n      dup9\n      dup9\n      call\n      swap4\n      pop\n      pop\n      pop\n      pop\n      iszero\n      dup1\n      iszero\n      tag_63\n      jumpi\n      returndatasize\n      0x00\n      dup1\n      returndatacopy\n      revert(0x00, returndatasize)\n    tag_63:\n      pop\n        /* \"staking-contract/contracts/Staking.sol\":3050:3051  0 */\n      0x00\n        /* \"staking-contract/contracts/Staking.sol\":3021:3035  stakedBalances */\n      0x04\n        /* \"staking-contract/contracts/Staking.sol\":3021:3047  stakedBalances[msg.sender] */\n      0x00\n        /* \"staking-contract/contracts/Staking.sol\":3036:3046  msg.sender */\n      caller\n        /* \"staking-contract/contracts/Staking.sol\":3021:3047  stakedBalances[msg.sender] */\n      0xffffffffffffffffffffffffffffffffffffffff\n      and\n      0xffffffffffffffffffffffffffffffffffffffff\n      and\n      dup2\n      mstore\n      0x20\n      add\n      swap1\n      dup2\n      mstore\n      0x20\n      add\n      0x00\n      keccak256\n        /* \"staking-contract/contracts/Staking.sol\":3021:3051  stakedBalances[msg.sender] = 0 */\n      dup2\n      swap1\n      sstore\n      pop\n        /* \"staking-contract/contracts/Staking.sol\":3094:3095  0 */\n      0x00\n        /* \"staking-contract/contracts/Staking.sol\":3062:3079  stakingStartTimes */\n      0x05\n        /* \"staking-contract/contracts/Staking.sol\":3062:3091  stakingStartTimes[msg.sender] */\n      0x00\n        /* \"staking-contract/contracts/Staking.sol\":3080:3090  msg.sender */\n      caller\n        /* \"staking-contract/contracts/Staking.sol\":3062:3091  stakingStartTimes[msg.sender] */\n      0xffffffffffffffffffffffffffffffffffffffff\n      and\n      0xffffffffffffffffffffffffffffffffffffffff\n      and\n      dup2\n      mstore\n      0x20\n      add\n      swap1\n      dup2\n      mstore\n      0x20\n      add\n      0x00\n      keccak256\n        /* \"staking-contract/contracts/Staking.sol\":3062:3095  stakingStartTimes[msg.sender] = 0 */\n      dup2\n      swap1\n      sstore\n      pop\n        /* \"staking-contract/contracts/Staking.sol\":3197:3198  0 */\n      0x00\n        /* \"staking-contract/contracts/Staking.sol\":3169:3181  userBalances */\n      0x03\n        /* \"staking-contract/contracts/Staking.sol\":3169:3193  userBalances[msg.sender] */\n      0x00\n        /* \"staking-contract/contracts/Staking.sol\":3182:3192  msg.sender */\n      caller\n        /* \"staking-contract/contracts/Staking.sol\":3169:3193  userBalances[msg.sender] */\n      0xffffffffffffffffffffffffffffffffffffffff\n      and\n      0xffffffffffffffffffffffffffffffffffffffff\n      and\n      dup2\n      mstore\n      0x20\n      add\n      swap1\n      dup2\n      mstore\n      0x20\n      add\n      0x00\n      keccak256\n      sload\n        /* \"staking-contract/contracts/Staking.sol\":3169:3198  userBalances[msg.sender] == 0 */\n      sub\n        /* \"staking-contract/contracts/Staking.sol\":3165:3258  if (userBalances[msg.sender] == 0) {... */\n      tag_64\n      jumpi\n        /* \"staking-contract/contracts/Staking.sol\":3222:3234  userBalances */\n      0x03\n        /* \"staking-contract/contracts/Staking.sol\":3222:3246  userBalances[msg.sender] */\n      0x00\n        /* \"staking-contract/contracts/Staking.sol\":3235:3245  msg.sender */\n      caller\n        /* \"staking-contract/contracts/Staking.sol\":3222:3246  userBalances[msg.sender] */\n      0xffffffffffffffffffffffffffffffffffffffff\n      and\n      0xffffffffffffffffffffffffffffffffffffffff\n      and\n      dup2\n      mstore\n      0x20\n      add\n      swap1\n      dup2\n      mstore\n      0x20\n      add\n      0x00\n      keccak256\n        /* \"staking-contract/contracts/Staking.sol\":3215:3246  delete userBalances[msg.sender] */\n      0x00\n      swap1\n      sstore\n        /* \"staking-contract/contracts/Staking.sol\":3165:3258  if (userBalances[msg.sender] == 0) {... */\n    tag_64:\n        /* \"staking-contract/contracts/Staking.sol\":2428:3265  {... */\n      pop\n      pop\n        /* \"staking-contract/contracts/Staking.sol\":2401:3265  function withdraw() public {... */\n      jump\t// out\n        /* \"staking-contract/contracts/Staking.sol\":2071:2393  function getStakers() public view returns (address[] memory) {... */\n    tag_31:\n        /* \"staking-contract/contracts/Staking.sol\":2114:2130  address[] memory */\n      0x60\n        /* \"staking-contract/contracts/Staking.sol\":2071:2393  function getStakers() public view returns (address[] memory) {... */\n      swap1\n      jump\t// out\n        /* \"staking-contract/contracts/Staking.sol\":1019:1366  function calculateRewards(address _user) public view returns (uint) {... */\n    tag_36:\n        /* \"staking-contract/contracts/Staking.sol\":1081:1085  uint */\n      0x00\n        /* \"staking-contract/contracts/Staking.sol\":1143:1158  uint timeStaked */\n      dup1\n        /* \"staking-contract/contracts/Staking.sol\":1179:1196  stakingStartTimes */\n      0x05\n        /* \"staking-contract/contracts/Staking.sol\":1179:1203  stakingStartTimes[_user] */\n      0x00\n        /* \"staking-contract/contracts/Staking.sol\":1197:1202  _user */\n      dup5\n        /* \"staking-contract/contracts/Staking.sol\":1179:1203  stakingStartTimes[_user] */\n      0xffffffffffffffffffffffffffffffffffffffff\n      and\n      0xffffffffffffffffffffffffffffffffffffffff\n      and\n      dup2\n      mstore\n      0x20\n      add\n      swap1\n      dup2\n      mstore\n      0x20\n      add\n      0x00\n      keccak256\n      sload\n        /* \"staking-contract/contracts/Staking.sol\":1161:1176  block.timestamp */\n      timestamp\n        /* \"staking-contract/contracts/Staking.sol\":1161:1203  block.timestamp - stakingStartTimes[_user] */\n      tag_67\n      swap2\n      swap1\n      tag_68\n      jump\t// in\n    tag_67:\n        /* \"staking-contract/contracts/Staking.sol\":1143:1203  uint timeStaked = block.timestamp - stakingStartTimes[_user] */\n      swap1\n      pop\n        /* \"staking-contract/contracts/Staking.sol\":1264:1276  uint rewards */\n      0x00\n        /* \"staking-contract/contracts/Staking.sol\":1318:1331  stakingPeriod */\n      sload(0x01)\n        /* \"staking-contract/contracts/Staking.sol\":1304:1314  timeStaked */\n      dup3\n        /* \"staking-contract/contracts/Staking.sol\":1280:1294  stakedBalances */\n      0x04\n        /* \"staking-contract/contracts/Staking.sol\":1280:1301  stakedBalances[_user] */\n      0x00\n        /* \"staking-contract/contracts/Staking.sol\":1295:1300  _user */\n      dup8\n        /* \"staking-contract/contracts/Staking.sol\":1280:1301  stakedBalances[_user] */\n      0xffffffffffffffffffffffffffffffffffffffff\n      and\n      0xffffffffffffffffffffffffffffffffffffffff\n      and\n      dup2\n      mstore\n      0x20\n      add\n      swap1\n      dup2\n      mstore\n      0x20\n      add\n      0x00\n      keccak256\n      sload\n        /* \"staking-contract/contracts/Staking.sol\":1280:1314  stakedBalances[_user] * timeStaked */\n      tag_69\n      swap2\n      swap1\n      tag_70\n      jump\t// in\n    tag_69:\n        /* \"staking-contract/contracts/Staking.sol\":1279:1331  (stakedBalances[_user] * timeStaked) / stakingPeriod */\n      tag_71\n      swap2\n      swap1\n      tag_72\n      jump\t// in\n    tag_71:\n        /* \"staking-contract/contracts/Staking.sol\":1264:1331  uint rewards = (stakedBalances[_user] * timeStaked) / stakingPeriod */\n      swap1\n      pop\n        /* \"staking-contract/contracts/Staking.sol\":1351:1358  rewards */\n      dup1\n        /* \"staking-contract/contracts/Staking.sol\":1344:1358  return rewards */\n      swap3\n      pop\n      pop\n      pop\n        /* \"staking-contract/contracts/Staking.sol\":1019:1366  function calculateRewards(address _user) public view returns (uint) {... */\n      swap2\n      swap1\n      pop\n      jump\t// out\n        /* \"staking-contract/contracts/Staking.sol\":1374:2063  function distributeRewards() public {... */\n    tag_39:\n        /* \"staking-contract/contracts/Staking.sol\":1421:1449  address[] memory stakersList */\n      0x00\n        /* \"staking-contract/contracts/Staking.sol\":1452:1464  getStakers() */\n      tag_74\n        /* \"staking-contract/contracts/Staking.sol\":1452:1462  getStakers */\n      tag_31\n        /* \"staking-contract/contracts/Staking.sol\":1452:1464  getStakers() */\n      jump\t// in\n    tag_74:\n        /* \"staking-contract/contracts/Staking.sol\":1421:1464  address[] memory stakersList = getStakers() */\n      swap1\n      pop\n        /* \"staking-contract/contracts/Staking.sol\":1600:1606  uint i */\n      0x00\n        /* \"staking-contract/contracts/Staking.sol\":1595:2056  for (uint i = 0; i < stakersList.length; i++) {... */\n    tag_75:\n        /* \"staking-contract/contracts/Staking.sol\":1616:1627  stakersList */\n      dup2\n        /* \"staking-contract/contracts/Staking.sol\":1616:1634  stakersList.length */\n      mload\n        /* \"staking-contract/contracts/Staking.sol\":1612:1613  i */\n      dup2\n        /* \"staking-contract/contracts/Staking.sol\":1612:1634  i < stakersList.length */\n      lt\n        /* \"staking-contract/contracts/Staking.sol\":1595:2056  for (uint i = 0; i < stakersList.length; i++) {... */\n      iszero\n      tag_76\n      jumpi\n        /* \"staking-contract/contracts/Staking.sol\":1656:1670  address staker */\n      0x00\n        /* \"staking-contract/contracts/Staking.sol\":1673:1684  stakersList */\n      dup3\n        /* \"staking-contract/contracts/Staking.sol\":1685:1686  i */\n      dup3\n        /* \"staking-contract/contracts/Staking.sol\":1673:1687  stakersList[i] */\n      dup2\n      mload\n      dup2\n      lt\n      tag_78\n      jumpi\n      tag_79\n      tag_80\n      jump\t// in\n    tag_79:\n    tag_78:\n      0x20\n      mul\n      0x20\n      add\n      add\n      mload\n        /* \"staking-contract/contracts/Staking.sol\":1656:1687  address staker = stakersList[i] */\n      swap1\n      pop\n        /* \"staking-contract/contracts/Staking.sol\":1761:1773  uint rewards */\n      0x00\n        /* \"staking-contract/contracts/Staking.sol\":1776:1800  calculateRewards(staker) */\n      tag_81\n        /* \"staking-contract/contracts/Staking.sol\":1793:1799  staker */\n      dup3\n        /* \"staking-contract/contracts/Staking.sol\":1776:1792  calculateRewards */\n      tag_36\n        /* \"staking-contract/contracts/Staking.sol\":1776:1800  calculateRewards(staker) */\n      jump\t// in\n    tag_81:\n        /* \"staking-contract/contracts/Staking.sol\":1761:1800  uint rewards = calculateRewards(staker) */\n      swap1\n      pop\n        /* \"staking-contract/contracts/Staking.sol\":1893:1900  rewards */\n      dup1\n        /* \"staking-contract/contracts/Staking.sol\":1869:1881  userBalances */\n      0x03\n        /* \"staking-contract/contracts/Staking.sol\":1869:1889  userBalances[staker] */\n      0x00\n        /* \"staking-contract/contracts/Staking.sol\":1882:1888  staker */\n      dup5\n        /* \"staking-contract/contracts/Staking.sol\":1869:1889  userBalances[staker] */\n      0xffffffffffffffffffffffffffffffffffffffff\n      and\n      0xffffffffffffffffffffffffffffffffffffffff\n      and\n      dup2\n      mstore\n      0x20\n      add\n      swap1\n      dup2\n      mstore\n      0x20\n      add\n      0x00\n      keccak256\n      0x00\n        /* \"staking-contract/contracts/Staking.sol\":1869:1900  userBalances[staker] += rewards */\n      dup3\n      dup3\n      sload\n      tag_82\n      swap2\n      swap1\n      tag_58\n      jump\t// in\n    tag_82:\n      swap3\n      pop\n      pop\n      dup2\n      swap1\n      sstore\n      pop\n        /* \"staking-contract/contracts/Staking.sol\":1999:2000  0 */\n      0x00\n        /* \"staking-contract/contracts/Staking.sol\":1974:1988  stakedBalances */\n      0x04\n        /* \"staking-contract/contracts/Staking.sol\":1974:1996  stakedBalances[staker] */\n      0x00\n        /* \"staking-contract/contracts/Staking.sol\":1989:1995  staker */\n      dup5\n        /* \"staking-contract/contracts/Staking.sol\":1974:1996  stakedBalances[staker] */\n      0xffffffffffffffffffffffffffffffffffffffff\n      and\n      0xffffffffffffffffffffffffffffffffffffffff\n      and\n      dup2\n      mstore\n      0x20\n      add\n      swap1\n      dup2\n      mstore\n      0x20\n      add\n      0x00\n      keccak256\n        /* \"staking-contract/contracts/Staking.sol\":1974:2000  stakedBalances[staker] = 0 */\n      dup2\n      swap1\n      sstore\n      pop\n        /* \"staking-contract/contracts/Staking.sol\":2043:2044  0 */\n      0x00\n        /* \"staking-contract/contracts/Staking.sol\":2015:2032  stakingStartTimes */\n      0x05\n        /* \"staking-contract/contracts/Staking.sol\":2015:2040  stakingStartTimes[staker] */\n      0x00\n        /* \"staking-contract/contracts/Staking.sol\":2033:2039  staker */\n      dup5\n        /* \"staking-contract/contracts/Staking.sol\":2015:2040  stakingStartTimes[staker] */\n      0xffffffffffffffffffffffffffffffffffffffff\n      and\n      0xffffffffffffffffffffffffffffffffffffffff\n      and\n      dup2\n      mstore\n      0x20\n      add\n      swap1\n      dup2\n      mstore\n      0x20\n      add\n      0x00\n      keccak256\n        /* \"staking-contract/contracts/Staking.sol\":2015:2044  stakingStartTimes[staker] = 0 */\n      dup2\n      swap1\n      sstore\n      pop\n        /* \"staking-contract/contracts/Staking.sol\":1641:2056  {... */\n      pop\n      pop\n        /* \"staking-contract/contracts/Staking.sol\":1636:1639  i++ */\n      dup1\n      dup1\n      0x01\n      add\n      swap2\n      pop\n      pop\n        /* \"staking-contract/contracts/Staking.sol\":1595:2056  for (uint i = 0; i < stakersList.length; i++) {... */\n      jump(tag_75)\n    tag_76:\n      pop\n        /* \"staking-contract/contracts/Staking.sol\":1410:2063  {... */\n      pop\n        /* \"staking-contract/contracts/Staking.sol\":1374:2063  function distributeRewards() public {... */\n      jump\t// out\n        /* \"staking-contract/contracts/Staking.sol\":93:113  address public owner */\n    tag_41:\n      0x00\n      dup1\n      sload\n      swap1\n      0x0100\n      exp\n      swap1\n      div\n      0xffffffffffffffffffffffffffffffffffffffff\n      and\n      dup2\n      jump\t// out\n        /* \"staking-contract/contracts/Staking.sol\":287:336  mapping(address => uint) public stakingStartTimes */\n    tag_46:\n      mstore(0x20, 0x05)\n      dup1\n      0x00\n      mstore\n      keccak256(0x00, 0x40)\n      0x00\n      swap2\n      pop\n      swap1\n      pop\n      sload\n      dup2\n      jump\t// out\n        /* \"staking-contract/contracts/Staking.sol\":523:1011  function stake(uint _amount) public {... */\n    tag_51:\n        /* \"staking-contract/contracts/Staking.sol\":655:662  _amount */\n      dup1\n        /* \"staking-contract/contracts/Staking.sol\":627:639  userBalances */\n      0x03\n        /* \"staking-contract/contracts/Staking.sol\":627:651  userBalances[msg.sender] */\n      0x00\n        /* \"staking-contract/contracts/Staking.sol\":640:650  msg.sender */\n      caller\n        /* \"staking-contract/contracts/Staking.sol\":627:651  userBalances[msg.sender] */\n      0xffffffffffffffffffffffffffffffffffffffff\n      and\n      0xffffffffffffffffffffffffffffffffffffffff\n      and\n      dup2\n      mstore\n      0x20\n      add\n      swap1\n      dup2\n      mstore\n      0x20\n      add\n      0x00\n      keccak256\n      sload\n        /* \"staking-contract/contracts/Staking.sol\":627:662  userBalances[msg.sender] >= _amount */\n      lt\n      iszero\n        /* \"staking-contract/contracts/Staking.sol\":619:687  require(userBalances[msg.sender] >= _amount, \"Insufficient balance\") */\n      tag_84\n      jumpi\n      mload(0x40)\n      0x08c379a000000000000000000000000000000000000000000000000000000000\n      dup2\n      mstore\n      0x04\n      add\n      tag_85\n      swap1\n      tag_86\n      jump\t// in\n    tag_85:\n      mload(0x40)\n      dup1\n      swap2\n      sub\n      swap1\n      revert\n    tag_84:\n        /* \"staking-contract/contracts/Staking.sol\":782:789  _amount */\n      dup1\n        /* \"staking-contract/contracts/Staking.sol\":754:766  userBalances */\n      0x03\n        /* \"staking-contract/contracts/Staking.sol\":754:778  userBalances[msg.sender] */\n      0x00\n        /* \"staking-contract/contracts/Staking.sol\":767:777  msg.sender */\n      caller\n        /* \"staking-contract/contracts/Staking.sol\":754:778  userBalances[msg.sender] */\n      0xffffffffffffffffffffffffffffffffffffffff\n      and\n      0xffffffffffffffffffffffffffffffffffffffff\n      and\n      dup2\n      mstore\n      0x20\n      add\n      swap1\n      dup2\n      mstore\n      0x20\n      add\n      0x00\n      keccak256\n      0x00\n        /* \"staking-contract/contracts/Staking.sol\":754:789  userBalances[msg.sender] -= _amount */\n      dup3\n      dup3\n      sload\n      tag_87\n      swap2\n      swap1\n      tag_68\n      jump\t// in\n    tag_87:\n      swap3\n      pop\n      pop\n      dup2\n      swap1\n      sstore\n      pop\n        /* \"staking-contract/contracts/Staking.sol\":888:895  _amount */\n      dup1\n        /* \"staking-contract/contracts/Staking.sol\":858:872  stakedBalances */\n      0x04\n        /* \"staking-contract/contracts/Staking.sol\":858:884  stakedBalances[msg.sender] */\n      0x00\n        /* \"staking-contract/contracts/Staking.sol\":873:883  msg.sender */\n      caller\n        /* \"staking-contract/contracts/Staking.sol\":858:884  stakedBalances[msg.sender] */\n      0xffffffffffffffffffffffffffffffffffffffff\n      and\n      0xffffffffffffffffffffffffffffffffffffffff\n      and\n      dup2\n      mstore\n      0x20\n      add\n      swap1\n      dup2\n      mstore\n      0x20\n      add\n      0x00\n      keccak256\n      0x00\n        /* \"staking-contract/contracts/Staking.sol\":858:895  stakedBalances[msg.sender] += _amount */\n      dup3\n      dup3\n      sload\n      tag_88\n      swap2\n      swap1\n      tag_58\n      jump\t// in\n    tag_88:\n      swap3\n      pop\n      pop\n      dup2\n      swap1\n      sstore\n      pop\n        /* \"staking-contract/contracts/Staking.sol\":988:1003  block.timestamp */\n      timestamp\n        /* \"staking-contract/contracts/Staking.sol\":956:973  stakingStartTimes */\n      0x05\n        /* \"staking-contract/contracts/Staking.sol\":956:985  stakingStartTimes[msg.sender] */\n      0x00\n        /* \"staking-contract/contracts/Staking.sol\":974:984  msg.sender */\n      caller\n        /* \"staking-contract/contracts/Staking.sol\":956:985  stakingStartTimes[msg.sender] */\n      0xffffffffffffffffffffffffffffffffffffffff\n      and\n      0xffffffffffffffffffffffffffffffffffffffff\n      and\n      dup2\n      mstore\n      0x20\n      add\n      swap1\n      dup2\n      mstore\n      0x20\n      add\n      0x00\n      keccak256\n        /* \"staking-contract/contracts/Staking.sol\":956:1003  stakingStartTimes[msg.sender] = block.timestamp */\n      dup2\n      swap1\n      sstore\n      pop\n        /* \"staking-contract/contracts/Staking.sol\":523:1011  function stake(uint _amount) public {... */\n      pop\n      jump\t// out\n        /* \"staking-contract/contracts/Staking.sol\":120:145  uint public stakingPeriod */\n    tag_53:\n      sload(0x01)\n      dup2\n      jump\t// out\n        /* \"#utility.yul\":7:84   */\n    tag_89:\n        /* \"#utility.yul\":44:51   */\n      0x00\n        /* \"#utility.yul\":73:78   */\n      dup2\n        /* \"#utility.yul\":62:78   */\n      swap1\n      pop\n        /* \"#utility.yul\":7:84   */\n      swap2\n      swap1\n      pop\n      jump\t// out\n        /* \"#utility.yul\":90:208   */\n    tag_90:\n        /* \"#utility.yul\":177:201   */\n      tag_118\n        /* \"#utility.yul\":195:200   */\n      dup2\n        /* \"#utility.yul\":177:201   */\n      tag_89\n      jump\t// in\n    tag_118:\n        /* \"#utility.yul\":172:175   */\n      dup3\n        /* \"#utility.yul\":165:202   */\n      mstore\n        /* \"#utility.yul\":90:208   */\n      pop\n      pop\n      jump\t// out\n        /* \"#utility.yul\":214:436   */\n    tag_18:\n        /* \"#utility.yul\":307:311   */\n      0x00\n        /* \"#utility.yul\":345:347   */\n      0x20\n        /* \"#utility.yul\":334:343   */\n      dup3\n        /* \"#utility.yul\":330:348   */\n      add\n        /* \"#utility.yul\":322:348   */\n      swap1\n      pop\n        /* \"#utility.yul\":358:429   */\n      tag_120\n        /* \"#utility.yul\":426:427   */\n      0x00\n        /* \"#utility.yul\":415:424   */\n      dup4\n        /* \"#utility.yul\":411:428   */\n      add\n        /* \"#utility.yul\":402:408   */\n      dup5\n        /* \"#utility.yul\":358:429   */\n      tag_90\n      jump\t// in\n    tag_120:\n        /* \"#utility.yul\":214:436   */\n      swap3\n      swap2\n      pop\n      pop\n      jump\t// out\n        /* \"#utility.yul\":523:640   */\n    tag_92:\n        /* \"#utility.yul\":632:633   */\n      0x00\n        /* \"#utility.yul\":629:630   */\n      dup1\n        /* \"#utility.yul\":622:634   */\n      revert\n        /* \"#utility.yul\":769:895   */\n    tag_94:\n        /* \"#utility.yul\":806:813   */\n      0x00\n        /* \"#utility.yul\":846:888   */\n      0xffffffffffffffffffffffffffffffffffffffff\n        /* \"#utility.yul\":839:844   */\n      dup3\n        /* \"#utility.yul\":835:889   */\n      and\n        /* \"#utility.yul\":824:889   */\n      swap1\n      pop\n        /* \"#utility.yul\":769:895   */\n      swap2\n      swap1\n      pop\n      jump\t// out\n        /* \"#utility.yul\":901:997   */\n    tag_95:\n        /* \"#utility.yul\":938:945   */\n      0x00\n        /* \"#utility.yul\":967:991   */\n      tag_126\n        /* \"#utility.yul\":985:990   */\n      dup3\n        /* \"#utility.yul\":967:991   */\n      tag_94\n      jump\t// in\n    tag_126:\n        /* \"#utility.yul\":956:991   */\n      swap1\n      pop\n        /* \"#utility.yul\":901:997   */\n      swap2\n      swap1\n      pop\n      jump\t// out\n        /* \"#utility.yul\":1003:1125   */\n    tag_96:\n        /* \"#utility.yul\":1076:1100   */\n      tag_128\n        /* \"#utility.yul\":1094:1099   */\n      dup2\n        /* \"#utility.yul\":1076:1100   */\n      tag_95\n      jump\t// in\n    tag_128:\n        /* \"#utility.yul\":1069:1074   */\n      dup2\n        /* \"#utility.yul\":1066:1101   */\n      eq\n        /* \"#utility.yul\":1056:1119   */\n      tag_129\n      jumpi\n        /* \"#utility.yul\":1115:1116   */\n      0x00\n        /* \"#utility.yul\":1112:1113   */\n      dup1\n        /* \"#utility.yul\":1105:1117   */\n      revert\n        /* \"#utility.yul\":1056:1119   */\n    tag_129:\n        /* \"#utility.yul\":1003:1125   */\n      pop\n      jump\t// out\n        /* \"#utility.yul\":1131:1270   */\n    tag_97:\n        /* \"#utility.yul\":1177:1182   */\n      0x00\n        /* \"#utility.yul\":1215:1221   */\n      dup2\n        /* \"#utility.yul\":1202:1222   */\n      calldataload\n        /* \"#utility.yul\":1193:1222   */\n      swap1\n      pop\n        /* \"#utility.yul\":1231:1264   */\n      tag_131\n        /* \"#utility.yul\":1258:1263   */\n      dup2\n        /* \"#utility.yul\":1231:1264   */\n      tag_96\n      jump\t// in\n    tag_131:\n        /* \"#utility.yul\":1131:1270   */\n      swap3\n      swap2\n      pop\n      pop\n      jump\t// out\n        /* \"#utility.yul\":1276:1605   */\n    tag_21:\n        /* \"#utility.yul\":1335:1341   */\n      0x00\n        /* \"#utility.yul\":1384:1386   */\n      0x20\n        /* \"#utility.yul\":1372:1381   */\n      dup3\n        /* \"#utility.yul\":1363:1370   */\n      dup5\n        /* \"#utility.yul\":1359:1382   */\n      sub\n        /* \"#utility.yul\":1355:1387   */\n      slt\n        /* \"#utility.yul\":1352:1471   */\n      iszero\n      tag_133\n      jumpi\n        /* \"#utility.yul\":1390:1469   */\n      tag_134\n      tag_92\n      jump\t// in\n    tag_134:\n        /* \"#utility.yul\":1352:1471   */\n    tag_133:\n        /* \"#utility.yul\":1510:1511   */\n      0x00\n        /* \"#utility.yul\":1535:1588   */\n      tag_135\n        /* \"#utility.yul\":1580:1587   */\n      dup5\n        /* \"#utility.yul\":1571:1577   */\n      dup3\n        /* \"#utility.yul\":1560:1569   */\n      dup6\n        /* \"#utility.yul\":1556:1578   */\n      add\n        /* \"#utility.yul\":1535:1588   */\n      tag_97\n      jump\t// in\n    tag_135:\n        /* \"#utility.yul\":1525:1588   */\n      swap2\n      pop\n        /* \"#utility.yul\":1481:1598   */\n      pop\n        /* \"#utility.yul\":1276:1605   */\n      swap3\n      swap2\n      pop\n      pop\n      jump\t// out\n        /* \"#utility.yul\":1611:1725   */\n    tag_98:\n        /* \"#utility.yul\":1678:1684   */\n      0x00\n        /* \"#utility.yul\":1712:1717   */\n      dup2\n        /* \"#utility.yul\":1706:1718   */\n      mload\n        /* \"#utility.yul\":1696:1718   */\n      swap1\n      pop\n        /* \"#utility.yul\":1611:1725   */\n      swap2\n      swap1\n      pop\n      jump\t// out\n        /* \"#utility.yul\":1731:1915   */\n    tag_99:\n        /* \"#utility.yul\":1830:1841   */\n      0x00\n        /* \"#utility.yul\":1864:1870   */\n      dup3\n        /* \"#utility.yul\":1859:1862   */\n      dup3\n        /* \"#utility.yul\":1852:1871   */\n      mstore\n        /* \"#utility.yul\":1904:1908   */\n      0x20\n        /* \"#utility.yul\":1899:1902   */\n      dup3\n        /* \"#utility.yul\":1895:1909   */\n      add\n        /* \"#utility.yul\":1880:1909   */\n      swap1\n      pop\n        /* \"#utility.yul\":1731:1915   */\n      swap3\n      swap2\n      pop\n      pop\n      jump\t// out\n        /* \"#utility.yul\":1921:2053   */\n    tag_100:\n        /* \"#utility.yul\":1988:1992   */\n      0x00\n        /* \"#utility.yul\":2011:2014   */\n      dup2\n        /* \"#utility.yul\":2003:2014   */\n      swap1\n      pop\n        /* \"#utility.yul\":2041:2045   */\n      0x20\n        /* \"#utility.yul\":2036:2039   */\n      dup3\n        /* \"#utility.yul\":2032:2046   */\n      add\n        /* \"#utility.yul\":2024:2046   */\n      swap1\n      pop\n        /* \"#utility.yul\":1921:2053   */\n      swap2\n      swap1\n      pop\n      jump\t// out\n        /* \"#utility.yul\":2059:2167   */\n    tag_101:\n        /* \"#utility.yul\":2136:2160   */\n      tag_140\n        /* \"#utility.yul\":2154:2159   */\n      dup2\n        /* \"#utility.yul\":2136:2160   */\n      tag_95\n      jump\t// in\n    tag_140:\n        /* \"#utility.yul\":2131:2134   */\n      dup3\n        /* \"#utility.yul\":2124:2161   */\n      mstore\n        /* \"#utility.yul\":2059:2167   */\n      pop\n      pop\n      jump\t// out\n        /* \"#utility.yul\":2173:2352   */\n    tag_102:\n        /* \"#utility.yul\":2242:2252   */\n      0x00\n        /* \"#utility.yul\":2263:2309   */\n      tag_142\n        /* \"#utility.yul\":2305:2308   */\n      dup4\n        /* \"#utility.yul\":2297:2303   */\n      dup4\n        /* \"#utility.yul\":2263:2309   */\n      tag_101\n      jump\t// in\n    tag_142:\n        /* \"#utility.yul\":2341:2345   */\n      0x20\n        /* \"#utility.yul\":2336:2339   */\n      dup4\n        /* \"#utility.yul\":2332:2346   */\n      add\n        /* \"#utility.yul\":2318:2346   */\n      swap1\n      pop\n        /* \"#utility.yul\":2173:2352   */\n      swap3\n      swap2\n      pop\n      pop\n      jump\t// out\n        /* \"#utility.yul\":2358:2471   */\n    tag_103:\n        /* \"#utility.yul\":2428:2432   */\n      0x00\n        /* \"#utility.yul\":2460:2464   */\n      0x20\n        /* \"#utility.yul\":2455:2458   */\n      dup3\n        /* \"#utility.yul\":2451:2465   */\n      add\n        /* \"#utility.yul\":2443:2465   */\n      swap1\n      pop\n        /* \"#utility.yul\":2358:2471   */\n      swap2\n      swap1\n      pop\n      jump\t// out\n        /* \"#utility.yul\":2507:3239   */\n    tag_104:\n        /* \"#utility.yul\":2626:2629   */\n      0x00\n        /* \"#utility.yul\":2655:2709   */\n      tag_145\n        /* \"#utility.yul\":2703:2708   */\n      dup3\n        /* \"#utility.yul\":2655:2709   */\n      tag_98\n      jump\t// in\n    tag_145:\n        /* \"#utility.yul\":2725:2811   */\n      tag_146\n        /* \"#utility.yul\":2804:2810   */\n      dup2\n        /* \"#utility.yul\":2799:2802   */\n      dup6\n        /* \"#utility.yul\":2725:2811   */\n      tag_99\n      jump\t// in\n    tag_146:\n        /* \"#utility.yul\":2718:2811   */\n      swap4\n      pop\n        /* \"#utility.yul\":2835:2891   */\n      tag_147\n        /* \"#utility.yul\":2885:2890   */\n      dup4\n        /* \"#utility.yul\":2835:2891   */\n      tag_100\n      jump\t// in\n    tag_147:\n        /* \"#utility.yul\":2914:2921   */\n      dup1\n        /* \"#utility.yul\":2945:2946   */\n      0x00\n        /* \"#utility.yul\":2930:3214   */\n    tag_148:\n        /* \"#utility.yul\":2955:2961   */\n      dup4\n        /* \"#utility.yul\":2952:2953   */\n      dup2\n        /* \"#utility.yul\":2949:2962   */\n      lt\n        /* \"#utility.yul\":2930:3214   */\n      iszero\n      tag_150\n      jumpi\n        /* \"#utility.yul\":3031:3037   */\n      dup2\n        /* \"#utility.yul\":3025:3038   */\n      mload\n        /* \"#utility.yul\":3058:3121   */\n      tag_151\n        /* \"#utility.yul\":3117:3120   */\n      dup9\n        /* \"#utility.yul\":3102:3115   */\n      dup3\n        /* \"#utility.yul\":3058:3121   */\n      tag_102\n      jump\t// in\n    tag_151:\n        /* \"#utility.yul\":3051:3121   */\n      swap8\n      pop\n        /* \"#utility.yul\":3144:3204   */\n      tag_152\n        /* \"#utility.yul\":3197:3203   */\n      dup4\n        /* \"#utility.yul\":3144:3204   */\n      tag_103\n      jump\t// in\n    tag_152:\n        /* \"#utility.yul\":3134:3204   */\n      swap3\n      pop\n        /* \"#utility.yul\":2990:3214   */\n      pop\n        /* \"#utility.yul\":2977:2978   */\n      0x01\n        /* \"#utility.yul\":2974:2975   */\n      dup2\n        /* \"#utility.yul\":2970:2979   */\n      add\n        /* \"#utility.yul\":2965:2979   */\n      swap1\n      pop\n        /* \"#utility.yul\":2930:3214   */\n      jump(tag_148)\n    tag_150:\n        /* \"#utility.yul\":2934:2948   */\n      pop\n        /* \"#utility.yul\":3230:3233   */\n      dup6\n        /* \"#utility.yul\":3223:3233   */\n      swap4\n      pop\n        /* \"#utility.yul\":2631:3239   */\n      pop\n      pop\n      pop\n        /* \"#utility.yul\":2507:3239   */\n      swap3\n      swap2\n      pop\n      pop\n      jump\t// out\n        /* \"#utility.yul\":3245:3618   */\n    tag_33:\n        /* \"#utility.yul\":3388:3392   */\n      0x00\n        /* \"#utility.yul\":3426:3428   */\n      0x20\n        /* \"#utility.yul\":3415:3424   */\n      dup3\n        /* \"#utility.yul\":3411:3429   */\n      add\n        /* \"#utility.yul\":3403:3429   */\n      swap1\n      pop\n        /* \"#utility.yul\":3475:3484   */\n      dup2\n        /* \"#utility.yul\":3469:3473   */\n      dup2\n        /* \"#utility.yul\":3465:3485   */\n      sub\n        /* \"#utility.yul\":3461:3462   */\n      0x00\n        /* \"#utility.yul\":3450:3459   */\n      dup4\n        /* \"#utility.yul\":3446:3463   */\n      add\n        /* \"#utility.yul\":3439:3486   */\n      mstore\n        /* \"#utility.yul\":3503:3611   */\n      tag_154\n        /* \"#utility.yul\":3606:3610   */\n      dup2\n        /* \"#utility.yul\":3597:3603   */\n      dup5\n        /* \"#utility.yul\":3503:3611   */\n      tag_104\n      jump\t// in\n    tag_154:\n        /* \"#utility.yul\":3495:3611   */\n      swap1\n      pop\n        /* \"#utility.yul\":3245:3618   */\n      swap3\n      swap2\n      pop\n      pop\n      jump\t// out\n        /* \"#utility.yul\":3624:3742   */\n    tag_105:\n        /* \"#utility.yul\":3711:3735   */\n      tag_156\n        /* \"#utility.yul\":3729:3734   */\n      dup2\n        /* \"#utility.yul\":3711:3735   */\n      tag_95\n      jump\t// in\n    tag_156:\n        /* \"#utility.yul\":3706:3709   */\n      dup3\n        /* \"#utility.yul\":3699:3736   */\n      mstore\n        /* \"#utility.yul\":3624:3742   */\n      pop\n      pop\n      jump\t// out\n        /* \"#utility.yul\":3748:3970   */\n    tag_43:\n        /* \"#utility.yul\":3841:3845   */\n      0x00\n        /* \"#utility.yul\":3879:3881   */\n      0x20\n        /* \"#utility.yul\":3868:3877   */\n      dup3\n        /* \"#utility.yul\":3864:3882   */\n      add\n        /* \"#utility.yul\":3856:3882   */\n      swap1\n      pop\n        /* \"#utility.yul\":3892:3963   */\n      tag_158\n        /* \"#utility.yul\":3960:3961   */\n      0x00\n        /* \"#utility.yul\":3949:3958   */\n      dup4\n        /* \"#utility.yul\":3945:3962   */\n      add\n        /* \"#utility.yul\":3936:3942   */\n      dup5\n        /* \"#utility.yul\":3892:3963   */\n      tag_105\n      jump\t// in\n    tag_158:\n        /* \"#utility.yul\":3748:3970   */\n      swap3\n      swap2\n      pop\n      pop\n      jump\t// out\n        /* \"#utility.yul\":3976:4098   */\n    tag_106:\n        /* \"#utility.yul\":4049:4073   */\n      tag_160\n        /* \"#utility.yul\":4067:4072   */\n      dup2\n        /* \"#utility.yul\":4049:4073   */\n      tag_89\n      jump\t// in\n    tag_160:\n        /* \"#utility.yul\":4042:4047   */\n      dup2\n        /* \"#utility.yul\":4039:4074   */\n      eq\n        /* \"#utility.yul\":4029:4092   */\n      tag_161\n      jumpi\n        /* \"#utility.yul\":4088:4089   */\n      0x00\n        /* \"#utility.yul\":4085:4086   */\n      dup1\n        /* \"#utility.yul\":4078:4090   */\n      revert\n        /* \"#utility.yul\":4029:4092   */\n    tag_161:\n        /* \"#utility.yul\":3976:4098   */\n      pop\n      jump\t// out\n        /* \"#utility.yul\":4104:4243   */\n    tag_107:\n        /* \"#utility.yul\":4150:4155   */\n      0x00\n        /* \"#utility.yul\":4188:4194   */\n      dup2\n        /* \"#utility.yul\":4175:4195   */\n      calldataload\n        /* \"#utility.yul\":4166:4195   */\n      swap1\n      pop\n        /* \"#utility.yul\":4204:4237   */\n      tag_163\n        /* \"#utility.yul\":4231:4236   */\n      dup2\n        /* \"#utility.yul\":4204:4237   */\n      tag_106\n      jump\t// in\n    tag_163:\n        /* \"#utility.yul\":4104:4243   */\n      swap3\n      swap2\n      pop\n      pop\n      jump\t// out\n        /* \"#utility.yul\":4249:4578   */\n    tag_50:\n        /* \"#utility.yul\":4308:4314   */\n      0x00\n        /* \"#utility.yul\":4357:4359   */\n      0x20\n        /* \"#utility.yul\":4345:4354   */\n      dup3\n        /* \"#utility.yul\":4336:4343   */\n      dup5\n        /* \"#utility.yul\":4332:4355   */\n      sub\n        /* \"#utility.yul\":4328:4360   */\n      slt\n        /* \"#utility.yul\":4325:4444   */\n      iszero\n      tag_165\n      jumpi\n        /* \"#utility.yul\":4363:4442   */\n      tag_166\n      tag_92\n      jump\t// in\n    tag_166:\n        /* \"#utility.yul\":4325:4444   */\n    tag_165:\n        /* \"#utility.yul\":4483:4484   */\n      0x00\n        /* \"#utility.yul\":4508:4561   */\n      tag_167\n        /* \"#utility.yul\":4553:4560   */\n      dup5\n        /* \"#utility.yul\":4544:4550   */\n      dup3\n        /* \"#utility.yul\":4533:4542   */\n      dup6\n        /* \"#utility.yul\":4529:4551   */\n      add\n        /* \"#utility.yul\":4508:4561   */\n      tag_107\n      jump\t// in\n    tag_167:\n        /* \"#utility.yul\":4498:4561   */\n      swap2\n      pop\n        /* \"#utility.yul\":4454:4571   */\n      pop\n        /* \"#utility.yul\":4249:4578   */\n      swap3\n      swap2\n      pop\n      pop\n      jump\t// out\n        /* \"#utility.yul\":4584:4764   */\n    tag_108:\n        /* \"#utility.yul\":4632:4709   */\n      0x4e487b7100000000000000000000000000000000000000000000000000000000\n        /* \"#utility.yul\":4629:4630   */\n      0x00\n        /* \"#utility.yul\":4622:4710   */\n      mstore\n        /* \"#utility.yul\":4729:4733   */\n      0x11\n        /* \"#utility.yul\":4726:4727   */\n      0x04\n        /* \"#utility.yul\":4719:4734   */\n      mstore\n        /* \"#utility.yul\":4753:4757   */\n      0x24\n        /* \"#utility.yul\":4750:4751   */\n      0x00\n        /* \"#utility.yul\":4743:4758   */\n      revert\n        /* \"#utility.yul\":4770:4961   */\n    tag_58:\n        /* \"#utility.yul\":4810:4813   */\n      0x00\n        /* \"#utility.yul\":4829:4849   */\n      tag_170\n        /* \"#utility.yul\":4847:4848   */\n      dup3\n        /* \"#utility.yul\":4829:4849   */\n      tag_89\n      jump\t// in\n    tag_170:\n        /* \"#utility.yul\":4824:4849   */\n      swap2\n      pop\n        /* \"#utility.yul\":4863:4883   */\n      tag_171\n        /* \"#utility.yul\":4881:4882   */\n      dup4\n        /* \"#utility.yul\":4863:4883   */\n      tag_89\n      jump\t// in\n    tag_171:\n        /* \"#utility.yul\":4858:4883   */\n      swap3\n      pop\n        /* \"#utility.yul\":4906:4907   */\n      dup3\n        /* \"#utility.yul\":4903:4904   */\n      dup3\n        /* \"#utility.yul\":4899:4908   */\n      add\n        /* \"#utility.yul\":4892:4908   */\n      swap1\n      pop\n        /* \"#utility.yul\":4927:4930   */\n      dup1\n        /* \"#utility.yul\":4924:4925   */\n      dup3\n        /* \"#utility.yul\":4921:4931   */\n      gt\n        /* \"#utility.yul\":4918:4954   */\n      iszero\n      tag_172\n      jumpi\n        /* \"#utility.yul\":4934:4952   */\n      tag_173\n      tag_108\n      jump\t// in\n    tag_173:\n        /* \"#utility.yul\":4918:4954   */\n    tag_172:\n        /* \"#utility.yul\":4770:4961   */\n      swap3\n      swap2\n      pop\n      pop\n      jump\t// out\n        /* \"#utility.yul\":4967:5136   */\n    tag_109:\n        /* \"#utility.yul\":5051:5062   */\n      0x00\n        /* \"#utility.yul\":5085:5091   */\n      dup3\n        /* \"#utility.yul\":5080:5083   */\n      dup3\n        /* \"#utility.yul\":5073:5092   */\n      mstore\n        /* \"#utility.yul\":5125:5129   */\n      0x20\n        /* \"#utility.yul\":5120:5123   */\n      dup3\n        /* \"#utility.yul\":5116:5130   */\n      add\n        /* \"#utility.yul\":5101:5130   */\n      swap1\n      pop\n        /* \"#utility.yul\":4967:5136   */\n      swap3\n      swap2\n      pop\n      pop\n      jump\t// out\n        /* \"#utility.yul\":5142:5324   */\n    tag_110:\n        /* \"#utility.yul\":5282:5316   */\n      0x496e73756666696369656e742062616c616e636520746f207769746864726177\n        /* \"#utility.yul\":5278:5279   */\n      0x00\n        /* \"#utility.yul\":5270:5276   */\n      dup3\n        /* \"#utility.yul\":5266:5280   */\n      add\n        /* \"#utility.yul\":5259:5317   */\n      mstore\n        /* \"#utility.yul\":5142:5324   */\n      pop\n      jump\t// out\n        /* \"#utility.yul\":5330:5696   */\n    tag_111:\n        /* \"#utility.yul\":5472:5475   */\n      0x00\n        /* \"#utility.yul\":5493:5560   */\n      tag_177\n        /* \"#utility.yul\":5557:5559   */\n      0x20\n        /* \"#utility.yul\":5552:5555   */\n      dup4\n        /* \"#utility.yul\":5493:5560   */\n      tag_109\n      jump\t// in\n    tag_177:\n        /* \"#utility.yul\":5486:5560   */\n      swap2\n      pop\n        /* \"#utility.yul\":5569:5662   */\n      tag_178\n        /* \"#utility.yul\":5658:5661   */\n      dup3\n        /* \"#utility.yul\":5569:5662   */\n      tag_110\n      jump\t// in\n    tag_178:\n        /* \"#utility.yul\":5687:5689   */\n      0x20\n        /* \"#utility.yul\":5682:5685   */\n      dup3\n        /* \"#utility.yul\":5678:5690   */\n      add\n        /* \"#utility.yul\":5671:5690   */\n      swap1\n      pop\n        /* \"#utility.yul\":5330:5696   */\n      swap2\n      swap1\n      pop\n      jump\t// out\n        /* \"#utility.yul\":5702:6121   */\n    tag_61:\n        /* \"#utility.yul\":5868:5872   */\n      0x00\n        /* \"#utility.yul\":5906:5908   */\n      0x20\n        /* \"#utility.yul\":5895:5904   */\n      dup3\n        /* \"#utility.yul\":5891:5909   */\n      add\n        /* \"#utility.yul\":5883:5909   */\n      swap1\n      pop\n        /* \"#utility.yul\":5955:5964   */\n      dup2\n        /* \"#utility.yul\":5949:5953   */\n      dup2\n        /* \"#utility.yul\":5945:5965   */\n      sub\n        /* \"#utility.yul\":5941:5942   */\n      0x00\n        /* \"#utility.yul\":5930:5939   */\n      dup4\n        /* \"#utility.yul\":5926:5943   */\n      add\n        /* \"#utility.yul\":5919:5966   */\n      mstore\n        /* \"#utility.yul\":5983:6114   */\n      tag_180\n        /* \"#utility.yul\":6109:6113   */\n      dup2\n        /* \"#utility.yul\":5983:6114   */\n      tag_111\n      jump\t// in\n    tag_180:\n        /* \"#utility.yul\":5975:6114   */\n      swap1\n      pop\n        /* \"#utility.yul\":5702:6121   */\n      swap2\n      swap1\n      pop\n      jump\t// out\n        /* \"#utility.yul\":6127:6321   */\n    tag_68:\n        /* \"#utility.yul\":6167:6171   */\n      0x00\n        /* \"#utility.yul\":6187:6207   */\n      tag_182\n        /* \"#utility.yul\":6205:6206   */\n      dup3\n        /* \"#utility.yul\":6187:6207   */\n      tag_89\n      jump\t// in\n    tag_182:\n        /* \"#utility.yul\":6182:6207   */\n      swap2\n      pop\n        /* \"#utility.yul\":6221:6241   */\n      tag_183\n        /* \"#utility.yul\":6239:6240   */\n      dup4\n        /* \"#utility.yul\":6221:6241   */\n      tag_89\n      jump\t// in\n    tag_183:\n        /* \"#utility.yul\":6216:6241   */\n      swap3\n      pop\n        /* \"#utility.yul\":6265:6266   */\n      dup3\n        /* \"#utility.yul\":6262:6263   */\n      dup3\n        /* \"#utility.yul\":6258:6267   */\n      sub\n        /* \"#utility.yul\":6250:6267   */\n      swap1\n      pop\n        /* \"#utility.yul\":6289:6290   */\n      dup2\n        /* \"#utility.yul\":6283:6287   */\n      dup2\n        /* \"#utility.yul\":6280:6291   */\n      gt\n        /* \"#utility.yul\":6277:6314   */\n      iszero\n      tag_184\n      jumpi\n        /* \"#utility.yul\":6294:6312   */\n      tag_185\n      tag_108\n      jump\t// in\n    tag_185:\n        /* \"#utility.yul\":6277:6314   */\n    tag_184:\n        /* \"#utility.yul\":6127:6321   */\n      swap3\n      swap2\n      pop\n      pop\n      jump\t// out\n        /* \"#utility.yul\":6327:6737   */\n    tag_70:\n        /* \"#utility.yul\":6367:6374   */\n      0x00\n        /* \"#utility.yul\":6390:6410   */\n      tag_187\n        /* \"#utility.yul\":6408:6409   */\n      dup3\n        /* \"#utility.yul\":6390:6410   */\n      tag_89\n      jump\t// in\n    tag_187:\n        /* \"#utility.yul\":6385:6410   */\n      swap2\n      pop\n        /* \"#utility.yul\":6424:6444   */\n      tag_188\n        /* \"#utility.yul\":6442:6443   */\n      dup4\n        /* \"#utility.yul\":6424:6444   */\n      tag_89\n      jump\t// in\n    tag_188:\n        /* \"#utility.yul\":6419:6444   */\n      swap3\n      pop\n        /* \"#utility.yul\":6479:6480   */\n      dup3\n        /* \"#utility.yul\":6476:6477   */\n      dup3\n        /* \"#utility.yul\":6472:6481   */\n      mul\n        /* \"#utility.yul\":6501:6531   */\n      tag_189\n        /* \"#utility.yul\":6519:6530   */\n      dup2\n        /* \"#utility.yul\":6501:6531   */\n      tag_89\n      jump\t// in\n    tag_189:\n        /* \"#utility.yul\":6490:6531   */\n      swap2\n      pop\n        /* \"#utility.yul\":6680:6681   */\n      dup3\n        /* \"#utility.yul\":6671:6678   */\n      dup3\n        /* \"#utility.yul\":6667:6682   */\n      div\n        /* \"#utility.yul\":6664:6665   */\n      dup5\n        /* \"#utility.yul\":6661:6683   */\n      eq\n        /* \"#utility.yul\":6641:6642   */\n      dup4\n        /* \"#utility.yul\":6634:6643   */\n      iszero\n        /* \"#utility.yul\":6614:6697   */\n      or\n        /* \"#utility.yul\":6591:6730   */\n      tag_190\n      jumpi\n        /* \"#utility.yul\":6710:6728   */\n      tag_191\n      tag_108\n      jump\t// in\n    tag_191:\n        /* \"#utility.yul\":6591:6730   */\n    tag_190:\n        /* \"#utility.yul\":6375:6737   */\n      pop\n        /* \"#utility.yul\":6327:6737   */\n      swap3\n      swap2\n      pop\n      pop\n      jump\t// out\n        /* \"#utility.yul\":6743:6923   */\n    tag_112:\n        /* \"#utility.yul\":6791:6868   */\n      0x4e487b7100000000000000000000000000000000000000000000000000000000\n        /* \"#utility.yul\":6788:6789   */\n      0x00\n        /* \"#utility.yul\":6781:6869   */\n      mstore\n        /* \"#utility.yul\":6888:6892   */\n      0x12\n        /* \"#utility.yul\":6885:6886   */\n      0x04\n        /* \"#utility.yul\":6878:6893   */\n      mstore\n        /* \"#utility.yul\":6912:6916   */\n      0x24\n        /* \"#utility.yul\":6909:6910   */\n      0x00\n        /* \"#utility.yul\":6902:6917   */\n      revert\n        /* \"#utility.yul\":6929:7114   */\n    tag_72:\n        /* \"#utility.yul\":6969:6970   */\n      0x00\n        /* \"#utility.yul\":6986:7006   */\n      tag_194\n        /* \"#utility.yul\":7004:7005   */\n      dup3\n        /* \"#utility.yul\":6986:7006   */\n      tag_89\n      jump\t// in\n    tag_194:\n        /* \"#utility.yul\":6981:7006   */\n      swap2\n      pop\n        /* \"#utility.yul\":7020:7040   */\n      tag_195\n        /* \"#utility.yul\":7038:7039   */\n      dup4\n        /* \"#utility.yul\":7020:7040   */\n      tag_89\n      jump\t// in\n    tag_195:\n        /* \"#utility.yul\":7015:7040   */\n      swap3\n      pop\n        /* \"#utility.yul\":7059:7060   */\n      dup3\n        /* \"#utility.yul\":7049:7084   */\n      tag_196\n      jumpi\n        /* \"#utility.yul\":7064:7082   */\n      tag_197\n      tag_112\n      jump\t// in\n    tag_197:\n        /* \"#utility.yul\":7049:7084   */\n    tag_196:\n        /* \"#utility.yul\":7106:7107   */\n      dup3\n        /* \"#utility.yul\":7103:7104   */\n      dup3\n        /* \"#utility.yul\":7099:7108   */\n      div\n        /* \"#utility.yul\":7094:7108   */\n      swap1\n      pop\n        /* \"#utility.yul\":6929:7114   */\n      swap3\n      swap2\n      pop\n      pop\n      jump\t// out\n        /* \"#utility.yul\":7120:7300   */\n    tag_80:\n        /* \"#utility.yul\":7168:7245   */\n      0x4e487b7100000000000000000000000000000000000000000000000000000000\n        /* \"#utility.yul\":7165:7166   */\n      0x00\n        /* \"#utility.yul\":7158:7246   */\n      mstore\n        /* \"#utility.yul\":7265:7269   */\n      0x32\n        /* \"#utility.yul\":7262:7263   */\n      0x04\n        /* \"#utility.yul\":7255:7270   */\n      mstore\n        /* \"#utility.yul\":7289:7293   */\n      0x24\n        /* \"#utility.yul\":7286:7287   */\n      0x00\n        /* \"#utility.yul\":7279:7294   */\n      revert\n        /* \"#utility.yul\":7306:7476   */\n    tag_113:\n        /* \"#utility.yul\":7446:7468   */\n      0x496e73756666696369656e742062616c616e6365000000000000000000000000\n        /* \"#utility.yul\":7442:7443   */\n      0x00\n        /* \"#utility.yul\":7434:7440   */\n      dup3\n        /* \"#utility.yul\":7430:7444   */\n      add\n        /* \"#utility.yul\":7423:7469   */\n      mstore\n        /* \"#utility.yul\":7306:7476   */\n      pop\n      jump\t// out\n        /* \"#utility.yul\":7482:7848   */\n    tag_114:\n        /* \"#utility.yul\":7624:7627   */\n      0x00\n        /* \"#utility.yul\":7645:7712   */\n      tag_201\n        /* \"#utility.yul\":7709:7711   */\n      0x14\n        /* \"#utility.yul\":7704:7707   */\n      dup4\n        /* \"#utility.yul\":7645:7712   */\n      tag_109\n      jump\t// in\n    tag_201:\n        /* \"#utility.yul\":7638:7712   */\n      swap2\n      pop\n        /* \"#utility.yul\":7721:7814   */\n      tag_202\n        /* \"#utility.yul\":7810:7813   */\n      dup3\n        /* \"#utility.yul\":7721:7814   */\n      tag_113\n      jump\t// in\n    tag_202:\n        /* \"#utility.yul\":7839:7841   */\n      0x20\n        /* \"#utility.yul\":7834:7837   */\n      dup3\n        /* \"#utility.yul\":7830:7842   */\n      add\n        /* \"#utility.yul\":7823:7842   */\n      swap1\n      pop\n        /* \"#utility.yul\":7482:7848   */\n      swap2\n      swap1\n      pop\n      jump\t// out\n        /* \"#utility.yul\":7854:8273   */\n    tag_86:\n        /* \"#utility.yul\":8020:8024   */\n      0x00\n        /* \"#utility.yul\":8058:8060   */\n      0x20\n        /* \"#utility.yul\":8047:8056   */\n      dup3\n        /* \"#utility.yul\":8043:8061   */\n      add\n        /* \"#utility.yul\":8035:8061   */\n      swap1\n      pop\n        /* \"#utility.yul\":8107:8116   */\n      dup2\n        /* \"#utility.yul\":8101:8105   */\n      dup2\n        /* \"#utility.yul\":8097:8117   */\n      sub\n        /* \"#utility.yul\":8093:8094   */\n      0x00\n        /* \"#utility.yul\":8082:8091   */\n      dup4\n        /* \"#utility.yul\":8078:8095   */\n      add\n        /* \"#utility.yul\":8071:8118   */\n      mstore\n        /* \"#utility.yul\":8135:8266   */\n      tag_204\n        /* \"#utility.yul\":8261:8265   */\n      dup2\n        /* \"#utility.yul\":8135:8266   */\n      tag_114\n      jump\t// in\n    tag_204:\n        /* \"#utility.yul\":8127:8266   */\n      swap1\n      pop\n        /* \"#utility.yul\":7854:8273   */\n      swap2\n      swap1\n      pop\n      jump\t// out\n\n    auxdata: 0xa2646970667358221220f3c75e363de7373c59297faa5dddc8696e664a25b4425eaac886d3f89f8206d464736f6c63430008160033\n}\n",
				"bytecode": {
					"linkReferences": {},
					"object": "608060405234801561000f575f80fd5b50604051610d3f380380610d3f833981810160405281019061003191906100bc565b335f806101000a81548173ffffffffffffffffffffffffffffffffffffffff021916908373ffffffffffffffffffffffffffffffffffffffff160217905550816001819055508060028190555050506100fa565b5f80fd5b5f819050919050565b61009b81610089565b81146100a5575f80fd5b50565b5f815190506100b681610092565b92915050565b5f80604083850312156100d2576100d1610085565b5b5f6100df858286016100a8565b92505060206100f0858286016100a8565b9150509250929050565b610c38806101075f395ff3fe608060405234801561000f575f80fd5b50600436106100a7575f3560e01c806364ab86751161006f57806364ab8675146101515780636f4a2cd0146101815780638da5cb5b1461018b5780639dedb97d146101a9578063a694fc3a146101d9578063c03d5b47146101f5576100a7565b80630e15561a146100ab5780631460fa87146100c957806326224c64146100f95780633ccfd60b1461012957806343352d6114610133575b5f80fd5b6100b3610213565b6040516100c091906107ce565b60405180910390f35b6100e360048036038101906100de9190610845565b610219565b6040516100f091906107ce565b60405180910390f35b610113600480360381019061010e9190610845565b61022e565b60405161012091906107ce565b60405180910390f35b610131610243565b005b61013b61042e565b6040516101489190610927565b60405180910390f35b61016b60048036038101906101669190610845565b610433565b60405161017891906107ce565b60405180910390f35b6101896104e3565b005b61019361060d565b6040516101a09190610956565b60405180910390f35b6101c360048036038101906101be9190610845565b610630565b6040516101d091906107ce565b60405180910390f35b6101f360048036038101906101ee9190610999565b610645565b005b6101fd6107b0565b60405161020a91906107ce565b60405180910390f35b60025481565b6004602052805f5260405f205f915090505481565b6003602052805f5260405f205f915090505481565b5f61024d33610433565b60035f3373ffffffffffffffffffffffffffffffffffffffff1673ffffffffffffffffffffffffffffffffffffffff1681526020019081526020015f205461029591906109f1565b90505f81116102d9576040517f08c379a00000000000000000000000000000000000000000000000000000000081526004016102d090610a7e565b60405180910390fd5b5f3390508073ffffffffffffffffffffffffffffffffffffffff166108fc8390811502906040515f60405180830381858888f19350505050158015610320573d5f803e3d5ffd5b505f60045f3373ffffffffffffffffffffffffffffffffffffffff1673ffffffffffffffffffffffffffffffffffffffff1681526020019081526020015f20819055505f60055f3373ffffffffffffffffffffffffffffffffffffffff1673ffffffffffffffffffffffffffffffffffffffff1681526020019081526020015f20819055505f60035f3373ffffffffffffffffffffffffffffffffffffffff1673ffffffffffffffffffffffffffffffffffffffff1681526020019081526020015f20540361042a5760035f3373ffffffffffffffffffffffffffffffffffffffff1673ffffffffffffffffffffffffffffffffffffffff1681526020019081526020015f205f90555b5050565b606090565b5f8060055f8473ffffffffffffffffffffffffffffffffffffffff1673ffffffffffffffffffffffffffffffffffffffff1681526020019081526020015f20544261047e9190610a9c565b90505f6001548260045f8773ffffffffffffffffffffffffffffffffffffffff1673ffffffffffffffffffffffffffffffffffffffff1681526020019081526020015f20546104cd9190610acf565b6104d79190610b3d565b90508092505050919050565b5f6104ec61042e565b90505f5b8151811015610609575f82828151811061050d5761050c610b6d565b5b602002602001015190505f61052182610433565b90508060035f8473ffffffffffffffffffffffffffffffffffffffff1673ffffffffffffffffffffffffffffffffffffffff1681526020019081526020015f205f82825461056f91906109f1565b925050819055505f60045f8473ffffffffffffffffffffffffffffffffffffffff1673ffffffffffffffffffffffffffffffffffffffff1681526020019081526020015f20819055505f60055f8473ffffffffffffffffffffffffffffffffffffffff1673ffffffffffffffffffffffffffffffffffffffff1681526020019081526020015f2081905550505080806001019150506104f0565b5050565b5f8054906101000a900473ffffffffffffffffffffffffffffffffffffffff1681565b6005602052805f5260405f205f915090505481565b8060035f3373ffffffffffffffffffffffffffffffffffffffff1673ffffffffffffffffffffffffffffffffffffffff1681526020019081526020015f205410156106c5576040517f08c379a00000000000000000000000000000000000000000000000000000000081526004016106bc90610be4565b60405180910390fd5b8060035f3373ffffffffffffffffffffffffffffffffffffffff1673ffffffffffffffffffffffffffffffffffffffff1681526020019081526020015f205f8282546107119190610a9c565b925050819055508060045f3373ffffffffffffffffffffffffffffffffffffffff1673ffffffffffffffffffffffffffffffffffffffff1681526020019081526020015f205f82825461076491906109f1565b925050819055504260055f3373ffffffffffffffffffffffffffffffffffffffff1673ffffffffffffffffffffffffffffffffffffffff1681526020019081526020015f208190555050565b60015481565b5f819050919050565b6107c8816107b6565b82525050565b5f6020820190506107e15f8301846107bf565b92915050565b5f80fd5b5f73ffffffffffffffffffffffffffffffffffffffff82169050919050565b5f610814826107eb565b9050919050565b6108248161080a565b811461082e575f80fd5b50565b5f8135905061083f8161081b565b92915050565b5f6020828403121561085a576108596107e7565b5b5f61086784828501610831565b91505092915050565b5f81519050919050565b5f82825260208201905092915050565b5f819050602082019050919050565b6108a28161080a565b82525050565b5f6108b38383610899565b60208301905092915050565b5f602082019050919050565b5f6108d582610870565b6108df818561087a565b93506108ea8361088a565b805f5b8381101561091a57815161090188826108a8565b975061090c836108bf565b9250506001810190506108ed565b5085935050505092915050565b5f6020820190508181035f83015261093f81846108cb565b905092915050565b6109508161080a565b82525050565b5f6020820190506109695f830184610947565b92915050565b610978816107b6565b8114610982575f80fd5b50565b5f813590506109938161096f565b92915050565b5f602082840312156109ae576109ad6107e7565b5b5f6109bb84828501610985565b91505092915050565b7f4e487b71000000000000000000000000000000000000000000000000000000005f52601160045260245ffd5b5f6109fb826107b6565b9150610a06836107b6565b9250828201905080821115610a1e57610a1d6109c4565b5b92915050565b5f82825260208201905092915050565b7f496e73756666696369656e742062616c616e636520746f2077697468647261775f82015250565b5f610a68602083610a24565b9150610a7382610a34565b602082019050919050565b5f6020820190508181035f830152610a9581610a5c565b9050919050565b5f610aa6826107b6565b9150610ab1836107b6565b9250828203905081811115610ac957610ac86109c4565b5b92915050565b5f610ad9826107b6565b9150610ae4836107b6565b9250828202610af2816107b6565b91508282048414831517610b0957610b086109c4565b5b5092915050565b7f4e487b71000000000000000000000000000000000000000000000000000000005f52601260045260245ffd5b5f610b47826107b6565b9150610b52836107b6565b925082610b6257610b61610b10565b5b828204905092915050565b7f4e487b71000000000000000000000000000000000000000000000000000000005f52603260045260245ffd5b7f496e73756666696369656e742062616c616e63650000000000000000000000005f82015250565b5f610bce601483610a24565b9150610bd982610b9a565b602082019050919050565b5f6020820190508181035f830152610bfb81610bc2565b905091905056fea2646970667358221220f3c75e363de7373c59297faa5dddc8696e664a25b4425eaac886d3f89f8206d464736f6c63430008160033",
					"opcodes": "PUSH1 0x80 PUSH1 0x40 MSTORE CALLVALUE DUP1 ISZERO PUSH2 0xF JUMPI PUSH0 DUP1 REVERT JUMPDEST POP PUSH1 0x40 MLOAD PUSH2 0xD3F CODESIZE SUB DUP1 PUSH2 0xD3F DUP4 CODECOPY DUP2 DUP2 ADD PUSH1 0x40 MSTORE DUP2 ADD SWAP1 PUSH2 0x31 SWAP2 SWAP1 PUSH2 0xBC JUMP JUMPDEST CALLER PUSH0 DUP1 PUSH2 0x100 EXP DUP2 SLOAD DUP2 PUSH20 0xFFFFFFFFFFFFFFFFFFFFFFFFFFFFFFFFFFFFFFFF MUL NOT AND SWAP1 DUP4 PUSH20 0xFFFFFFFFFFFFFFFFFFFFFFFFFFFFFFFFFFFFFFFF AND MUL OR SWAP1 SSTORE POP DUP2 PUSH1 0x1 DUP2 SWAP1 SSTORE POP DUP1 PUSH1 0x2 DUP2 SWAP1 SSTORE POP POP POP PUSH2 0xFA JUMP JUMPDEST PUSH0 DUP1 REVERT JUMPDEST PUSH0 DUP2 SWAP1 POP SWAP2 SWAP1 POP JUMP JUMPDEST PUSH2 0x9B DUP2 PUSH2 0x89 JUMP JUMPDEST DUP2 EQ PUSH2 0xA5 JUMPI PUSH0 DUP1 REVERT JUMPDEST POP JUMP JUMPDEST PUSH0 DUP2 MLOAD SWAP1 POP PUSH2 0xB6 DUP2 PUSH2 0x92 JUMP JUMPDEST SWAP3 SWAP2 POP POP JUMP JUMPDEST PUSH0 DUP1 PUSH1 0x40 DUP4 DUP6 SUB SLT ISZERO PUSH2 0xD2 JUMPI PUSH2 0xD1 PUSH2 0x85 JUMP JUMPDEST JUMPDEST PUSH0 PUSH2 0xDF DUP6 DUP3 DUP7 ADD PUSH2 0xA8 JUMP JUMPDEST SWAP3 POP POP PUSH1 0x20 PUSH2 0xF0 DUP6 DUP3 DUP7 ADD PUSH2 0xA8 JUMP JUMPDEST SWAP2 POP POP SWAP3 POP SWAP3 SWAP1 POP JUMP JUMPDEST PUSH2 0xC38 DUP1 PUSH2 0x107 PUSH0 CODECOPY PUSH0 RETURN INVALID PUSH1 0x80 PUSH1 0x40 MSTORE CALLVALUE DUP1 ISZERO PUSH2 0xF JUMPI PUSH0 DUP1 REVERT JUMPDEST POP PUSH1 0x4 CALLDATASIZE LT PUSH2 0xA7 JUMPI PUSH0 CALLDATALOAD PUSH1 0xE0 SHR DUP1 PUSH4 0x64AB8675 GT PUSH2 0x6F JUMPI DUP1 PUSH4 0x64AB8675 EQ PUSH2 0x151 JUMPI DUP1 PUSH4 0x6F4A2CD0 EQ PUSH2 0x181 JUMPI DUP1 PUSH4 0x8DA5CB5B EQ PUSH2 0x18B JUMPI DUP1 PUSH4 0x9DEDB97D EQ PUSH2 0x1A9 JUMPI DUP1 PUSH4 0xA694FC3A EQ PUSH2 0x1D9 JUMPI DUP1 PUSH4 0xC03D5B47 EQ PUSH2 0x1F5 JUMPI PUSH2 0xA7 JUMP JUMPDEST DUP1 PUSH4 0xE15561A EQ PUSH2 0xAB JUMPI DUP1 PUSH4 0x1460FA87 EQ PUSH2 0xC9 JUMPI DUP1 PUSH4 0x26224C64 EQ PUSH2 0xF9 JUMPI DUP1 PUSH4 0x3CCFD60B EQ PUSH2 0x129 JUMPI DUP1 PUSH4 0x43352D61 EQ PUSH2 0x133 JUMPI JUMPDEST PUSH0 DUP1 REVERT JUMPDEST PUSH2 0xB3 PUSH2 0x213 JUMP JUMPDEST PUSH1 0x40 MLOAD PUSH2 0xC0 SWAP2 SWAP1 PUSH2 0x7CE JUMP JUMPDEST PUSH1 0x40 MLOAD DUP1 SWAP2 SUB SWAP1 RETURN JUMPDEST PUSH2 0xE3 PUSH1 0x4 DUP1 CALLDATASIZE SUB DUP2 ADD SWAP1 PUSH2 0xDE SWAP2 SWAP1 PUSH2 0x845 JUMP JUMPDEST PUSH2 0x219 JUMP JUMPDEST PUSH1 0x40 MLOAD PUSH2 0xF0 SWAP2 SWAP1 PUSH2 0x7CE JUMP JUMPDEST PUSH1 0x40 MLOAD DUP1 SWAP2 SUB SWAP1 RETURN JUMPDEST PUSH2 0x113 PUSH1 0x4 DUP1 CALLDATASIZE SUB DUP2 ADD SWAP1 PUSH2 0x10E SWAP2 SWAP1 PUSH2 0x845 JUMP JUMPDEST PUSH2 0x22E JUMP JUMPDEST PUSH1 0x40 MLOAD PUSH2 0x120 SWAP2 SWAP1 PUSH2 0x7CE JUMP JUMPDEST PUSH1 0x40 MLOAD DUP1 SWAP2 SUB SWAP1 RETURN JUMPDEST PUSH2 0x131 PUSH2 0x243 JUMP JUMPDEST STOP JUMPDEST PUSH2 0x13B PUSH2 0x42E JUMP JUMPDEST PUSH1 0x40 MLOAD PUSH2 0x148 SWAP2 SWAP1 PUSH2 0x927 JUMP JUMPDEST PUSH1 0x40 MLOAD DUP1 SWAP2 SUB SWAP1 RETURN JUMPDEST PUSH2 0x16B PUSH1 0x4 DUP1 CALLDATASIZE SUB DUP2 ADD SWAP1 PUSH2 0x166 SWAP2 SWAP1 PUSH2 0x845 JUMP JUMPDEST PUSH2 0x433 JUMP JUMPDEST PUSH1 0x40 MLOAD PUSH2 0x178 SWAP2 SWAP1 PUSH2 0x7CE JUMP JUMPDEST PUSH1 0x40 MLOAD DUP1 SWAP2 SUB SWAP1 RETURN JUMPDEST PUSH2 0x189 PUSH2 0x4E3 JUMP JUMPDEST STOP JUMPDEST PUSH2 0x193 PUSH2 0x60D JUMP JUMPDEST PUSH1 0x40 MLOAD PUSH2 0x1A0 SWAP2 SWAP1 PUSH2 0x956 JUMP JUMPDEST PUSH1 0x40 MLOAD DUP1 SWAP2 SUB SWAP1 RETURN JUMPDEST PUSH2 0x1C3 PUSH1 0x4 DUP1 CALLDATASIZE SUB DUP2 ADD SWAP1 PUSH2 0x1BE SWAP2 SWAP1 PUSH2 0x845 JUMP JUMPDEST PUSH2 0x630 JUMP JUMPDEST PUSH1 0x40 MLOAD PUSH2 0x1D0 SWAP2 SWAP1 PUSH2 0x7CE JUMP JUMPDEST PUSH1 0x40 MLOAD DUP1 SWAP2 SUB SWAP1 RETURN JUMPDEST PUSH2 0x1F3 PUSH1 0x4 DUP1 CALLDATASIZE SUB DUP2 ADD SWAP1 PUSH2 0x1EE SWAP2 SWAP1 PUSH2 0x999 JUMP JUMPDEST PUSH2 0x645 JUMP JUMPDEST STOP JUMPDEST PUSH2 0x1FD PUSH2 0x7B0 JUMP JUMPDEST PUSH1 0x40 MLOAD PUSH2 0x20A SWAP2 SWAP1 PUSH2 0x7CE JUMP JUMPDEST PUSH1 0x40 MLOAD DUP1 SWAP2 SUB SWAP1 RETURN JUMPDEST PUSH1 0x2 SLOAD DUP2 JUMP JUMPDEST PUSH1 0x4 PUSH1 0x20 MSTORE DUP1 PUSH0 MSTORE PUSH1 0x40 PUSH0 KECCAK256 PUSH0 SWAP2 POP SWAP1 POP SLOAD DUP2 JUMP JUMPDEST PUSH1 0x3 PUSH1 0x20 MSTORE DUP1 PUSH0 MSTORE PUSH1 0x40 PUSH0 KECCAK256 PUSH0 SWAP2 POP SWAP1 POP SLOAD DUP2 JUMP JUMPDEST PUSH0 PUSH2 0x24D CALLER PUSH2 0x433 JUMP JUMPDEST PUSH1 0x3 PUSH0 CALLER PUSH20 0xFFFFFFFFFFFFFFFFFFFFFFFFFFFFFFFFFFFFFFFF AND PUSH20 0xFFFFFFFFFFFFFFFFFFFFFFFFFFFFFFFFFFFFFFFF AND DUP2 MSTORE PUSH1 0x20 ADD SWAP1 DUP2 MSTORE PUSH1 0x20 ADD PUSH0 KECCAK256 SLOAD PUSH2 0x295 SWAP2 SWAP1 PUSH2 0x9F1 JUMP JUMPDEST SWAP1 POP PUSH0 DUP2 GT PUSH2 0x2D9 JUMPI PUSH1 0x40 MLOAD PUSH32 0x8C379A000000000000000000000000000000000000000000000000000000000 DUP2 MSTORE PUSH1 0x4 ADD PUSH2 0x2D0 SWAP1 PUSH2 0xA7E JUMP JUMPDEST PUSH1 0x40 MLOAD DUP1 SWAP2 SUB SWAP1 REVERT JUMPDEST PUSH0 CALLER SWAP1 POP DUP1 PUSH20 0xFFFFFFFFFFFFFFFFFFFFFFFFFFFFFFFFFFFFFFFF AND PUSH2 0x8FC DUP4 SWAP1 DUP2 ISZERO MUL SWAP1 PUSH1 0x40 MLOAD PUSH0 PUSH1 0x40 MLOAD DUP1 DUP4 SUB DUP2 DUP6 DUP9 DUP9 CALL SWAP4 POP POP POP POP ISZERO DUP1 ISZERO PUSH2 0x320 JUMPI RETURNDATASIZE PUSH0 DUP1 RETURNDATACOPY RETURNDATASIZE PUSH0 REVERT JUMPDEST POP PUSH0 PUSH1 0x4 PUSH0 CALLER PUSH20 0xFFFFFFFFFFFFFFFFFFFFFFFFFFFFFFFFFFFFFFFF AND PUSH20 0xFFFFFFFFFFFFFFFFFFFFFFFFFFFFFFFFFFFFFFFF AND DUP2 MSTORE PUSH1 0x20 ADD SWAP1 DUP2 MSTORE PUSH1 0x20 ADD PUSH0 KECCAK256 DUP2 SWAP1 SSTORE POP PUSH0 PUSH1 0x5 PUSH0 CALLER PUSH20 0xFFFFFFFFFFFFFFFFFFFFFFFFFFFFFFFFFFFFFFFF AND PUSH20 0xFFFFFFFFFFFFFFFFFFFFFFFFFFFFFFFFFFFFFFFF AND DUP2 MSTORE PUSH1 0x20 ADD SWAP1 DUP2 MSTORE PUSH1 0x20 ADD PUSH0 KECCAK256 DUP2 SWAP1 SSTORE POP PUSH0 PUSH1 0x3 PUSH0 CALLER PUSH20 0xFFFFFFFFFFFFFFFFFFFFFFFFFFFFFFFFFFFFFFFF AND PUSH20 0xFFFFFFFFFFFFFFFFFFFFFFFFFFFFFFFFFFFFFFFF AND DUP2 MSTORE PUSH1 0x20 ADD SWAP1 DUP2 MSTORE PUSH1 0x20 ADD PUSH0 KECCAK256 SLOAD SUB PUSH2 0x42A JUMPI PUSH1 0x3 PUSH0 CALLER PUSH20 0xFFFFFFFFFFFFFFFFFFFFFFFFFFFFFFFFFFFFFFFF AND PUSH20 0xFFFFFFFFFFFFFFFFFFFFFFFFFFFFFFFFFFFFFFFF AND DUP2 MSTORE PUSH1 0x20 ADD SWAP1 DUP2 MSTORE PUSH1 0x20 ADD PUSH0 KECCAK256 PUSH0 SWAP1 SSTORE JUMPDEST POP POP JUMP JUMPDEST PUSH1 0x60 SWAP1 JUMP JUMPDEST PUSH0 DUP1 PUSH1 0x5 PUSH0 DUP5 PUSH20 0xFFFFFFFFFFFFFFFFFFFFFFFFFFFFFFFFFFFFFFFF AND PUSH20 0xFFFFFFFFFFFFFFFFFFFFFFFFFFFFFFFFFFFFFFFF AND DUP2 MSTORE PUSH1 0x20 ADD SWAP1 DUP2 MSTORE PUSH1 0x20 ADD PUSH0 KECCAK256 SLOAD TIMESTAMP PUSH2 0x47E SWAP2 SWAP1 PUSH2 0xA9C JUMP JUMPDEST SWAP1 POP PUSH0 PUSH1 0x1 SLOAD DUP3 PUSH1 0x4 PUSH0 DUP8 PUSH20 0xFFFFFFFFFFFFFFFFFFFFFFFFFFFFFFFFFFFFFFFF AND PUSH20 0xFFFFFFFFFFFFFFFFFFFFFFFFFFFFFFFFFFFFFFFF AND DUP2 MSTORE PUSH1 0x20 ADD SWAP1 DUP2 MSTORE PUSH1 0x20 ADD PUSH0 KECCAK256 SLOAD PUSH2 0x4CD SWAP2 SWAP1 PUSH2 0xACF JUMP JUMPDEST PUSH2 0x4D7 SWAP2 SWAP1 PUSH2 0xB3D JUMP JUMPDEST SWAP1 POP DUP1 SWAP3 POP POP POP SWAP2 SWAP1 POP JUMP JUMPDEST PUSH0 PUSH2 0x4EC PUSH2 0x42E JUMP JUMPDEST SWAP1 POP PUSH0 JUMPDEST DUP2 MLOAD DUP2 LT ISZERO PUSH2 0x609 JUMPI PUSH0 DUP3 DUP3 DUP2 MLOAD DUP2 LT PUSH2 0x50D JUMPI PUSH2 0x50C PUSH2 0xB6D JUMP JUMPDEST JUMPDEST PUSH1 0x20 MUL PUSH1 0x20 ADD ADD MLOAD SWAP1 POP PUSH0 PUSH2 0x521 DUP3 PUSH2 0x433 JUMP JUMPDEST SWAP1 POP DUP1 PUSH1 0x3 PUSH0 DUP5 PUSH20 0xFFFFFFFFFFFFFFFFFFFFFFFFFFFFFFFFFFFFFFFF AND PUSH20 0xFFFFFFFFFFFFFFFFFFFFFFFFFFFFFFFFFFFFFFFF AND DUP2 MSTORE PUSH1 0x20 ADD SWAP1 DUP2 MSTORE PUSH1 0x20 ADD PUSH0 KECCAK256 PUSH0 DUP3 DUP3 SLOAD PUSH2 0x56F SWAP2 SWAP1 PUSH2 0x9F1 JUMP JUMPDEST SWAP3 POP POP DUP2 SWAP1 SSTORE POP PUSH0 PUSH1 0x4 PUSH0 DUP5 PUSH20 0xFFFFFFFFFFFFFFFFFFFFFFFFFFFFFFFFFFFFFFFF AND PUSH20 0xFFFFFFFFFFFFFFFFFFFFFFFFFFFFFFFFFFFFFFFF AND DUP2 MSTORE PUSH1 0x20 ADD SWAP1 DUP2 MSTORE PUSH1 0x20 ADD PUSH0 KECCAK256 DUP2 SWAP1 SSTORE POP PUSH0 PUSH1 0x5 PUSH0 DUP5 PUSH20 0xFFFFFFFFFFFFFFFFFFFFFFFFFFFFFFFFFFFFFFFF AND PUSH20 0xFFFFFFFFFFFFFFFFFFFFFFFFFFFFFFFFFFFFFFFF AND DUP2 MSTORE PUSH1 0x20 ADD SWAP1 DUP2 MSTORE PUSH1 0x20 ADD PUSH0 KECCAK256 DUP2 SWAP1 SSTORE POP POP POP DUP1 DUP1 PUSH1 0x1 ADD SWAP2 POP POP PUSH2 0x4F0 JUMP JUMPDEST POP POP JUMP JUMPDEST PUSH0 DUP1 SLOAD SWAP1 PUSH2 0x100 EXP SWAP1 DIV PUSH20 0xFFFFFFFFFFFFFFFFFFFFFFFFFFFFFFFFFFFFFFFF AND DUP2 JUMP JUMPDEST PUSH1 0x5 PUSH1 0x20 MSTORE DUP1 PUSH0 MSTORE PUSH1 0x40 PUSH0 KECCAK256 PUSH0 SWAP2 POP SWAP1 POP SLOAD DUP2 JUMP JUMPDEST DUP1 PUSH1 0x3 PUSH0 CALLER PUSH20 0xFFFFFFFFFFFFFFFFFFFFFFFFFFFFFFFFFFFFFFFF AND PUSH20 0xFFFFFFFFFFFFFFFFFFFFFFFFFFFFFFFFFFFFFFFF AND DUP2 MSTORE PUSH1 0x20 ADD SWAP1 DUP2 MSTORE PUSH1 0x20 ADD PUSH0 KECCAK256 SLOAD LT ISZERO PUSH2 0x6C5 JUMPI PUSH1 0x40 MLOAD PUSH32 0x8C379A000000000000000000000000000000000000000000000000000000000 DUP2 MSTORE PUSH1 0x4 ADD PUSH2 0x6BC SWAP1 PUSH2 0xBE4 JUMP JUMPDEST PUSH1 0x40 MLOAD DUP1 SWAP2 SUB SWAP1 REVERT JUMPDEST DUP1 PUSH1 0x3 PUSH0 CALLER PUSH20 0xFFFFFFFFFFFFFFFFFFFFFFFFFFFFFFFFFFFFFFFF AND PUSH20 0xFFFFFFFFFFFFFFFFFFFFFFFFFFFFFFFFFFFFFFFF AND DUP2 MSTORE PUSH1 0x20 ADD SWAP1 DUP2 MSTORE PUSH1 0x20 ADD PUSH0 KECCAK256 PUSH0 DUP3 DUP3 SLOAD PUSH2 0x711 SWAP2 SWAP1 PUSH2 0xA9C JUMP JUMPDEST SWAP3 POP POP DUP2 SWAP1 SSTORE POP DUP1 PUSH1 0x4 PUSH0 CALLER PUSH20 0xFFFFFFFFFFFFFFFFFFFFFFFFFFFFFFFFFFFFFFFF AND PUSH20 0xFFFFFFFFFFFFFFFFFFFFFFFFFFFFFFFFFFFFFFFF AND DUP2 MSTORE PUSH1 0x20 ADD SWAP1 DUP2 MSTORE PUSH1 0x20 ADD PUSH0 KECCAK256 PUSH0 DUP3 DUP3 SLOAD PUSH2 0x764 SWAP2 SWAP1 PUSH2 0x9F1 JUMP JUMPDEST SWAP3 POP POP DUP2 SWAP1 SSTORE POP TIMESTAMP PUSH1 0x5 PUSH0 CALLER PUSH20 0xFFFFFFFFFFFFFFFFFFFFFFFFFFFFFFFFFFFFFFFF AND PUSH20 0xFFFFFFFFFFFFFFFFFFFFFFFFFFFFFFFFFFFFFFFF AND DUP2 MSTORE PUSH1 0x20 ADD SWAP1 DUP2 MSTORE PUSH1 0x20 ADD PUSH0 KECCAK256 DUP2 SWAP1 SSTORE POP POP JUMP JUMPDEST PUSH1 0x1 SLOAD DUP2 JUMP JUMPDEST PUSH0 DUP2 SWAP1 POP SWAP2 SWAP1 POP JUMP JUMPDEST PUSH2 0x7C8 DUP2 PUSH2 0x7B6 JUMP JUMPDEST DUP3 MSTORE POP POP JUMP JUMPDEST PUSH0 PUSH1 0x20 DUP3 ADD SWAP1 POP PUSH2 0x7E1 PUSH0 DUP4 ADD DUP5 PUSH2 0x7BF JUMP JUMPDEST SWAP3 SWAP2 POP POP JUMP JUMPDEST PUSH0 DUP1 REVERT JUMPDEST PUSH0 PUSH20 0xFFFFFFFFFFFFFFFFFFFFFFFFFFFFFFFFFFFFFFFF DUP3 AND SWAP1 POP SWAP2 SWAP1 POP JUMP JUMPDEST PUSH0 PUSH2 0x814 DUP3 PUSH2 0x7EB JUMP JUMPDEST SWAP1 POP SWAP2 SWAP1 POP JUMP JUMPDEST PUSH2 0x824 DUP2 PUSH2 0x80A JUMP JUMPDEST DUP2 EQ PUSH2 0x82E JUMPI PUSH0 DUP1 REVERT JUMPDEST POP JUMP JUMPDEST PUSH0 DUP2 CALLDATALOAD SWAP1 POP PUSH2 0x83F DUP2 PUSH2 0x81B JUMP JUMPDEST SWAP3 SWAP2 POP POP JUMP JUMPDEST PUSH0 PUSH1 0x20 DUP3 DUP5 SUB SLT ISZERO PUSH2 0x85A JUMPI PUSH2 0x859 PUSH2 0x7E7 JUMP JUMPDEST JUMPDEST PUSH0 PUSH2 0x867 DUP5 DUP3 DUP6 ADD PUSH2 0x831 JUMP JUMPDEST SWAP2 POP POP SWAP3 SWAP2 POP POP JUMP JUMPDEST PUSH0 DUP2 MLOAD SWAP1 POP SWAP2 SWAP1 POP JUMP JUMPDEST PUSH0 DUP3 DUP3 MSTORE PUSH1 0x20 DUP3 ADD SWAP1 POP SWAP3 SWAP2 POP POP JUMP JUMPDEST PUSH0 DUP2 SWAP1 POP PUSH1 0x20 DUP3 ADD SWAP1 POP SWAP2 SWAP1 POP JUMP JUMPDEST PUSH2 0x8A2 DUP2 PUSH2 0x80A JUMP JUMPDEST DUP3 MSTORE POP POP JUMP JUMPDEST PUSH0 PUSH2 0x8B3 DUP4 DUP4 PUSH2 0x899 JUMP JUMPDEST PUSH1 0x20 DUP4 ADD SWAP1 POP SWAP3 SWAP2 POP POP JUMP JUMPDEST PUSH0 PUSH1 0x20 DUP3 ADD SWAP1 POP SWAP2 SWAP1 POP JUMP JUMPDEST PUSH0 PUSH2 0x8D5 DUP3 PUSH2 0x870 JUMP JUMPDEST PUSH2 0x8DF DUP2 DUP6 PUSH2 0x87A JUMP JUMPDEST SWAP4 POP PUSH2 0x8EA DUP4 PUSH2 0x88A JUMP JUMPDEST DUP1 PUSH0 JUMPDEST DUP4 DUP2 LT ISZERO PUSH2 0x91A JUMPI DUP2 MLOAD PUSH2 0x901 DUP9 DUP3 PUSH2 0x8A8 JUMP JUMPDEST SWAP8 POP PUSH2 0x90C DUP4 PUSH2 0x8BF JUMP JUMPDEST SWAP3 POP POP PUSH1 0x1 DUP2 ADD SWAP1 POP PUSH2 0x8ED JUMP JUMPDEST POP DUP6 SWAP4 POP POP POP POP SWAP3 SWAP2 POP POP JUMP JUMPDEST PUSH0 PUSH1 0x20 DUP3 ADD SWAP1 POP DUP2 DUP2 SUB PUSH0 DUP4 ADD MSTORE PUSH2 0x93F DUP2 DUP5 PUSH2 0x8CB JUMP JUMPDEST SWAP1 POP SWAP3 SWAP2 POP POP JUMP JUMPDEST PUSH2 0x950 DUP2 PUSH2 0x80A JUMP JUMPDEST DUP3 MSTORE POP POP JUMP JUMPDEST PUSH0 PUSH1 0x20 DUP3 ADD SWAP1 POP PUSH2 0x969 PUSH0 DUP4 ADD DUP5 PUSH2 0x947 JUMP JUMPDEST SWAP3 SWAP2 POP POP JUMP JUMPDEST PUSH2 0x978 DUP2 PUSH2 0x7B6 JUMP JUMPDEST DUP2 EQ PUSH2 0x982 JUMPI PUSH0 DUP1 REVERT JUMPDEST POP JUMP JUMPDEST PUSH0 DUP2 CALLDATALOAD SWAP1 POP PUSH2 0x993 DUP2 PUSH2 0x96F JUMP JUMPDEST SWAP3 SWAP2 POP POP JUMP JUMPDEST PUSH0 PUSH1 0x20 DUP3 DUP5 SUB SLT ISZERO PUSH2 0x9AE JUMPI PUSH2 0x9AD PUSH2 0x7E7 JUMP JUMPDEST JUMPDEST PUSH0 PUSH2 0x9BB DUP5 DUP3 DUP6 ADD PUSH2 0x985 JUMP JUMPDEST SWAP2 POP POP SWAP3 SWAP2 POP POP JUMP JUMPDEST PUSH32 0x4E487B7100000000000000000000000000000000000000000000000000000000 PUSH0 MSTORE PUSH1 0x11 PUSH1 0x4 MSTORE PUSH1 0x24 PUSH0 REVERT JUMPDEST PUSH0 PUSH2 0x9FB DUP3 PUSH2 0x7B6 JUMP JUMPDEST SWAP2 POP PUSH2 0xA06 DUP4 PUSH2 0x7B6 JUMP JUMPDEST SWAP3 POP DUP3 DUP3 ADD SWAP1 POP DUP1 DUP3 GT ISZERO PUSH2 0xA1E JUMPI PUSH2 0xA1D PUSH2 0x9C4 JUMP JUMPDEST JUMPDEST SWAP3 SWAP2 POP POP JUMP JUMPDEST PUSH0 DUP3 DUP3 MSTORE PUSH1 0x20 DUP3 ADD SWAP1 POP SWAP3 SWAP2 POP POP JUMP JUMPDEST PUSH32 0x496E73756666696369656E742062616C616E636520746F207769746864726177 PUSH0 DUP3 ADD MSTORE POP JUMP JUMPDEST PUSH0 PUSH2 0xA68 PUSH1 0x20 DUP4 PUSH2 0xA24 JUMP JUMPDEST SWAP2 POP PUSH2 0xA73 DUP3 PUSH2 0xA34 JUMP JUMPDEST PUSH1 0x20 DUP3 ADD SWAP1 POP SWAP2 SWAP1 POP JUMP JUMPDEST PUSH0 PUSH1 0x20 DUP3 ADD SWAP1 POP DUP2 DUP2 SUB PUSH0 DUP4 ADD MSTORE PUSH2 0xA95 DUP2 PUSH2 0xA5C JUMP JUMPDEST SWAP1 POP SWAP2 SWAP1 POP JUMP JUMPDEST PUSH0 PUSH2 0xAA6 DUP3 PUSH2 0x7B6 JUMP JUMPDEST SWAP2 POP PUSH2 0xAB1 DUP4 PUSH2 0x7B6 JUMP JUMPDEST SWAP3 POP DUP3 DUP3 SUB SWAP1 POP DUP2 DUP2 GT ISZERO PUSH2 0xAC9 JUMPI PUSH2 0xAC8 PUSH2 0x9C4 JUMP JUMPDEST JUMPDEST SWAP3 SWAP2 POP POP JUMP JUMPDEST PUSH0 PUSH2 0xAD9 DUP3 PUSH2 0x7B6 JUMP JUMPDEST SWAP2 POP PUSH2 0xAE4 DUP4 PUSH2 0x7B6 JUMP JUMPDEST SWAP3 POP DUP3 DUP3 MUL PUSH2 0xAF2 DUP2 PUSH2 0x7B6 JUMP JUMPDEST SWAP2 POP DUP3 DUP3 DIV DUP5 EQ DUP4 ISZERO OR PUSH2 0xB09 JUMPI PUSH2 0xB08 PUSH2 0x9C4 JUMP JUMPDEST JUMPDEST POP SWAP3 SWAP2 POP POP JUMP JUMPDEST PUSH32 0x4E487B7100000000000000000000000000000000000000000000000000000000 PUSH0 MSTORE PUSH1 0x12 PUSH1 0x4 MSTORE PUSH1 0x24 PUSH0 REVERT JUMPDEST PUSH0 PUSH2 0xB47 DUP3 PUSH2 0x7B6 JUMP JUMPDEST SWAP2 POP PUSH2 0xB52 DUP4 PUSH2 0x7B6 JUMP JUMPDEST SWAP3 POP DUP3 PUSH2 0xB62 JUMPI PUSH2 0xB61 PUSH2 0xB10 JUMP JUMPDEST JUMPDEST DUP3 DUP3 DIV SWAP1 POP SWAP3 SWAP2 POP POP JUMP JUMPDEST PUSH32 0x4E487B7100000000000000000000000000000000000000000000000000000000 PUSH0 MSTORE PUSH1 0x32 PUSH1 0x4 MSTORE PUSH1 0x24 PUSH0 REVERT JUMPDEST PUSH32 0x496E73756666696369656E742062616C616E6365000000000000000000000000 PUSH0 DUP3 ADD MSTORE POP JUMP JUMPDEST PUSH0 PUSH2 0xBCE PUSH1 0x14 DUP4 PUSH2 0xA24 JUMP JUMPDEST SWAP2 POP PUSH2 0xBD9 DUP3 PUSH2 0xB9A JUMP JUMPDEST PUSH1 0x20 DUP3 ADD SWAP1 POP SWAP2 SWAP1 POP JUMP JUMPDEST PUSH0 PUSH1 0x20 DUP3 ADD SWAP1 POP DUP2 DUP2 SUB PUSH0 DUP4 ADD MSTORE PUSH2 0xBFB DUP2 PUSH2 0xBC2 JUMP JUMPDEST SWAP1 POP SWAP2 SWAP1 POP JUMP INVALID LOG2 PUSH5 0x6970667358 0x22 SLT KECCAK256 RETURN 0xC7 0x5E CALLDATASIZE RETURNDATASIZE 0xE7 CALLDATACOPY EXTCODECOPY MSIZE 0x29 PUSH32 0xAA5DDDC8696E664A25B4425EAAC886D3F89F8206D464736F6C63430008160033 "
				},
				"gasEstimates": {
					"creation": {
						"codeDepositCost": "625600",
						"executionCost": "infinite",
						"totalCost": "infinite"
					},
					"external": {
						"calculateRewards(address)": "infinite",
						"distributeRewards()": "infinite",
						"getStakers()": "infinite",
						"owner()": "2549",
						"stake(uint256)": "infinite",
						"stakedBalances(address)": "2825",
						"stakingPeriod()": "2535",
						"stakingStartTimes(address)": "2868",
						"totalRewards()": "2426",
						"userBalances(address)": "2847",
						"withdraw()": "infinite"
					}
				},
				"methodIdentifiers": {
					"calculateRewards(address)": "64ab8675",
					"distributeRewards()": "6f4a2cd0",
					"getStakers()": "43352d61",
					"owner()": "8da5cb5b",
					"stake(uint256)": "a694fc3a",
					"stakedBalances(address)": "1460fa87",
					"stakingPeriod()": "c03d5b47",
					"stakingStartTimes(address)": "9dedb97d",
					"totalRewards()": "0e15561a",
					"userBalances(address)": "26224c64",
					"withdraw()": "3ccfd60b"
				}
			},
			"storageLayout": {
				"storage": [
					{
						"astId": 3,
						"contract": "staking-contract/contracts/Staking.sol:Staking",
						"label": "owner",
						"offset": 0,
						"slot": "0",
						"type": "t_address"
					},
					{
						"astId": 5,
						"contract": "staking-contract/contracts/Staking.sol:Staking",
						"label": "stakingPeriod",
						"offset": 0,
						"slot": "1",
						"type": "t_uint256"
					},
					{
						"astId": 7,
						"contract": "staking-contract/contracts/Staking.sol:Staking",
						"label": "totalRewards",
						"offset": 0,
						"slot": "2",
						"type": "t_uint256"
					},
					{
						"astId": 11,
						"contract": "staking-contract/contracts/Staking.sol:Staking",
						"label": "userBalances",
						"offset": 0,
						"slot": "3",
						"type": "t_mapping(t_address,t_uint256)"
					},
					{
						"astId": 15,
						"contract": "staking-contract/contracts/Staking.sol:Staking",
						"label": "stakedBalances",
						"offset": 0,
						"slot": "4",
						"type": "t_mapping(t_address,t_uint256)"
					},
					{
						"astId": 19,
						"contract": "staking-contract/contracts/Staking.sol:Staking",
						"label": "stakingStartTimes",
						"offset": 0,
						"slot": "5",
						"type": "t_mapping(t_address,t_uint256)"
					}
				],
				"types": {
					"t_address": {
						"encoding": "inplace",
						"label": "address",
						"numberOfBytes": "20"
					},
					"t_mapping(t_address,t_uint256)": {
						"encoding": "mapping",
						"key": "t_address",
						"label": "mapping(address => uint256)",
						"numberOfBytes": "32",
						"value": "t_uint256"
					},
					"t_uint256": {
						"encoding": "inplace",
						"label": "uint256",
						"numberOfBytes": "32"
					}
				}
			},
			"userdoc": {
				"kind": "user",
				"methods": {},
				"version": 1
			}
		}
	}
}